{
  "_format": "hh-sol-artifact-1",
  "contractName": "NFTMarketPlace",
  "sourceName": "contracts/NFTMarketPlace.sol",
  "abi": [
    {
      "inputs": [],
      "stateMutability": "nonpayable",
      "type": "constructor"
    },
    {
      "inputs": [],
      "name": "ReentrancyGuardReentrantCall",
      "type": "error"
    },
    {
      "anonymous": false,
      "inputs": [
        {
          "indexed": false,
          "internalType": "uint256",
          "name": "itemId",
          "type": "uint256"
        },
        {
          "indexed": false,
          "internalType": "address",
          "name": "nftContract",
          "type": "address"
        },
        {
          "indexed": false,
          "internalType": "uint256",
          "name": "tokenId",
          "type": "uint256"
        },
        {
          "indexed": false,
          "internalType": "address",
          "name": "seller",
          "type": "address"
        },
        {
          "indexed": false,
          "internalType": "address",
          "name": "owner",
          "type": "address"
        },
        {
          "indexed": false,
          "internalType": "uint256",
          "name": "price",
          "type": "uint256"
        },
        {
          "indexed": false,
          "internalType": "bool",
          "name": "sold",
          "type": "bool"
        }
      ],
      "name": "NFTMarketItemCreated",
      "type": "event"
    },
    {
      "anonymous": false,
      "inputs": [
        {
          "indexed": false,
          "internalType": "uint256",
          "name": "itemId",
          "type": "uint256"
        },
        {
          "indexed": false,
          "internalType": "address",
          "name": "nftContract",
          "type": "address"
        },
        {
          "indexed": false,
          "internalType": "uint256",
          "name": "tokenId",
          "type": "uint256"
        },
        {
          "indexed": false,
          "internalType": "address",
          "name": "seller",
          "type": "address"
        },
        {
          "indexed": false,
          "internalType": "address",
          "name": "owner",
          "type": "address"
        },
        {
          "indexed": false,
          "internalType": "uint256",
          "name": "price",
          "type": "uint256"
        },
        {
          "indexed": false,
          "internalType": "bool",
          "name": "sold",
          "type": "bool"
        }
      ],
      "name": "NFTMarketItemSold",
      "type": "event"
    },
    {
      "inputs": [
        {
          "internalType": "address",
          "name": "nftContract",
          "type": "address"
        },
        {
          "internalType": "uint256",
          "name": "tokenId",
          "type": "uint256"
        },
        {
          "internalType": "uint256",
          "name": "price",
          "type": "uint256"
        }
      ],
      "name": "createNFTMarketItem",
      "outputs": [],
      "stateMutability": "payable",
      "type": "function"
    },
    {
      "inputs": [
        {
          "internalType": "uint256",
          "name": "itemId",
          "type": "uint256"
        }
      ],
      "name": "createNFTMarketSale",
      "outputs": [],
      "stateMutability": "payable",
      "type": "function"
    },
    {
      "inputs": [],
      "name": "fetchMyCreatedNFT",
      "outputs": [
        {
          "components": [
            {
              "internalType": "uint256",
              "name": "itemId",
              "type": "uint256"
            },
            {
              "internalType": "address",
              "name": "nftContract",
              "type": "address"
            },
            {
              "internalType": "uint256",
              "name": "tokenId",
              "type": "uint256"
            },
            {
              "internalType": "address payable",
              "name": "seller",
              "type": "address"
            },
            {
              "internalType": "address payable",
              "name": "owner",
              "type": "address"
            },
            {
              "internalType": "uint256",
              "name": "price",
              "type": "uint256"
            },
            {
              "internalType": "bool",
              "name": "sold",
              "type": "bool"
            }
          ],
          "internalType": "struct NFTMarketPlace.NFTMarketItem[]",
          "name": "",
          "type": "tuple[]"
        }
      ],
      "stateMutability": "view",
      "type": "function"
    },
    {
      "inputs": [],
      "name": "fetchMyNFT",
      "outputs": [
        {
          "components": [
            {
              "internalType": "uint256",
              "name": "itemId",
              "type": "uint256"
            },
            {
              "internalType": "address",
              "name": "nftContract",
              "type": "address"
            },
            {
              "internalType": "uint256",
              "name": "tokenId",
              "type": "uint256"
            },
            {
              "internalType": "address payable",
              "name": "seller",
              "type": "address"
            },
            {
              "internalType": "address payable",
              "name": "owner",
              "type": "address"
            },
            {
              "internalType": "uint256",
              "name": "price",
              "type": "uint256"
            },
            {
              "internalType": "bool",
              "name": "sold",
              "type": "bool"
            }
          ],
          "internalType": "struct NFTMarketPlace.NFTMarketItem[]",
          "name": "",
          "type": "tuple[]"
        }
      ],
      "stateMutability": "view",
      "type": "function"
    },
    {
      "inputs": [],
      "name": "fetchUnsoldNFTMarketItems",
      "outputs": [
        {
          "components": [
            {
              "internalType": "uint256",
              "name": "itemId",
              "type": "uint256"
            },
            {
              "internalType": "address",
              "name": "nftContract",
              "type": "address"
            },
            {
              "internalType": "uint256",
              "name": "tokenId",
              "type": "uint256"
            },
            {
              "internalType": "address payable",
              "name": "seller",
              "type": "address"
            },
            {
              "internalType": "address payable",
              "name": "owner",
              "type": "address"
            },
            {
              "internalType": "uint256",
              "name": "price",
              "type": "uint256"
            },
            {
              "internalType": "bool",
              "name": "sold",
              "type": "bool"
            }
          ],
          "internalType": "struct NFTMarketPlace.NFTMarketItem[]",
          "name": "",
          "type": "tuple[]"
        }
      ],
      "stateMutability": "view",
      "type": "function"
    },
    {
      "inputs": [],
      "name": "getListingPrice",
      "outputs": [
        {
          "internalType": "uint256",
          "name": "",
          "type": "uint256"
        }
      ],
      "stateMutability": "view",
      "type": "function"
    },
    {
      "inputs": [],
      "name": "listingPrice",
      "outputs": [
        {
          "internalType": "uint256",
          "name": "",
          "type": "uint256"
        }
      ],
      "stateMutability": "view",
      "type": "function"
    },
    {
      "inputs": [],
      "name": "owner",
      "outputs": [
        {
          "internalType": "address payable",
          "name": "",
          "type": "address"
        }
      ],
      "stateMutability": "view",
      "type": "function"
    },
    {
      "inputs": [
        {
          "internalType": "uint256",
          "name": "",
          "type": "uint256"
        }
      ],
      "name": "tidToMarket",
      "outputs": [
        {
          "internalType": "uint256",
          "name": "itemId",
          "type": "uint256"
        },
        {
          "internalType": "address",
          "name": "nftContract",
          "type": "address"
        },
        {
          "internalType": "uint256",
          "name": "tokenId",
          "type": "uint256"
        },
        {
          "internalType": "address payable",
          "name": "seller",
          "type": "address"
        },
        {
          "internalType": "address payable",
          "name": "owner",
          "type": "address"
        },
        {
          "internalType": "uint256",
          "name": "price",
          "type": "uint256"
        },
        {
          "internalType": "bool",
          "name": "sold",
          "type": "bool"
        }
      ],
      "stateMutability": "view",
      "type": "function"
    },
    {
      "inputs": [
        {
          "internalType": "uint256",
          "name": "_listingPrice",
          "type": "uint256"
        }
      ],
      "name": "updateListingPrice",
      "outputs": [],
      "stateMutability": "nonpayable",
      "type": "function"
    }
  ],
  "bytecode": "0x608060405266071afd498d000060035534801561001b57600080fd5b50600160008190555033600460006101000a81548173ffffffffffffffffffffffffffffffffffffffff021916908373ffffffffffffffffffffffffffffffffffffffff160217905550611c5a806100746000396000f3fe6080604052600436106100915760003560e01c80638da5cb5b116100595780638da5cb5b14610176578063ae677aa3146101a1578063c18763f7146101ca578063c78f19f9146101f5578063e1f708131461022057610091565b806312e85585146100965780633c73bd53146100c15780635c47cf26146101045780635e0a4d991461012f578063757173f61461014b575b600080fd5b3480156100a257600080fd5b506100ab61023c565b6040516100b891906113cc565b60405180910390f35b3480156100cd57600080fd5b506100e860048036038101906100e39190611418565b610246565b6040516100fb97969594939291906114c2565b60405180910390f35b34801561011057600080fd5b506101196102f5565b60405161012691906116aa565b60405180910390f35b610149600480360381019061014491906116f8565b610590565b005b34801561015757600080fd5b506101606108a0565b60405161016d91906116aa565b60405180910390f35b34801561018257600080fd5b5061018b610bcb565b604051610198919061174b565b60405180910390f35b3480156101ad57600080fd5b506101c860048036038101906101c39190611418565b610bf1565b005b3480156101d657600080fd5b506101df610c8b565b6040516101ec91906116aa565b60405180910390f35b34801561020157600080fd5b5061020a610fb6565b60405161021791906113cc565b60405180910390f35b61023a60048036038101906102359190611418565b610fbc565b005b6000600354905090565b60056020528060005260406000206000915090508060000154908060010160009054906101000a900473ffffffffffffffffffffffffffffffffffffffff16908060020154908060030160009054906101000a900473ffffffffffffffffffffffffffffffffffffffff16908060040160009054906101000a900473ffffffffffffffffffffffffffffffffffffffff16908060050154908060060160009054906101000a900460ff16905087565b606060006002546001546103099190611795565b90506000808267ffffffffffffffff811115610328576103276117c9565b5b60405190808252806020026020018201604052801561036157816020015b61034e611332565b8152602001906001900390816103465790505b50905060005b60015481101561058657600073ffffffffffffffffffffffffffffffffffffffff166005600060018461039a91906117f8565b815260200190815260200160002060040160009054906101000a900473ffffffffffffffffffffffffffffffffffffffff1673ffffffffffffffffffffffffffffffffffffffff160361057957600560006001836103f891906117f8565b81526020019081526020016000206040518060e0016040529081600082015481526020016001820160009054906101000a900473ffffffffffffffffffffffffffffffffffffffff1673ffffffffffffffffffffffffffffffffffffffff1673ffffffffffffffffffffffffffffffffffffffff168152602001600282015481526020016003820160009054906101000a900473ffffffffffffffffffffffffffffffffffffffff1673ffffffffffffffffffffffffffffffffffffffff1673ffffffffffffffffffffffffffffffffffffffff1681526020016004820160009054906101000a900473ffffffffffffffffffffffffffffffffffffffff1673ffffffffffffffffffffffffffffffffffffffff1673ffffffffffffffffffffffffffffffffffffffff168152602001600582015481526020016006820160009054906101000a900460ff16151515158152505082848151811061055f5761055e61182c565b5b602002602001018190525082806105759061185b565b9350505b8080600101915050610367565b5080935050505090565b6105986112e2565b600081116105db576040517f08c379a00000000000000000000000000000000000000000000000000000000081526004016105d290611900565b60405180910390fd5b600354341461061f576040517f08c379a000000000000000000000000000000000000000000000000000000000815260040161061690611992565b60405180910390fd5b600160008154809291906106329061185b565b91905055506040518060e0016040528060015481526020018473ffffffffffffffffffffffffffffffffffffffff1681526020018381526020013373ffffffffffffffffffffffffffffffffffffffff168152602001600073ffffffffffffffffffffffffffffffffffffffff168152602001828152602001600015158152506005600060015481526020019081526020016000206000820151816000015560208201518160010160006101000a81548173ffffffffffffffffffffffffffffffffffffffff021916908373ffffffffffffffffffffffffffffffffffffffff1602179055506040820151816002015560608201518160030160006101000a81548173ffffffffffffffffffffffffffffffffffffffff021916908373ffffffffffffffffffffffffffffffffffffffff16021790555060808201518160040160006101000a81548173ffffffffffffffffffffffffffffffffffffffff021916908373ffffffffffffffffffffffffffffffffffffffff16021790555060a0820151816005015560c08201518160060160006101000a81548160ff0219169083151502179055509050508273ffffffffffffffffffffffffffffffffffffffff166323b872dd3330856040518463ffffffff1660e01b815260040161081a939291906119b2565b600060405180830381600087803b15801561083457600080fd5b505af1158015610848573d6000803e3d6000fd5b505050507f602e8434dc78d7d8448d0725f7663cecc377b20db681301152aafd4d9d4e1578600154848433600086600060405161088b97969594939291906119e9565b60405180910390a161089b611328565b505050565b60606000806000905060005b600154811015610947573373ffffffffffffffffffffffffffffffffffffffff16600560006001846108de91906117f8565b815260200190815260200160002060030160009054906101000a900473ffffffffffffffffffffffffffffffffffffffff1673ffffffffffffffffffffffffffffffffffffffff160361093a5782806109369061185b565b9350505b80806001019150506108ac565b5060008267ffffffffffffffff811115610964576109636117c9565b5b60405190808252806020026020018201604052801561099d57816020015b61098a611332565b8152602001906001900390816109825790505b50905060005b600154811015610bc1573373ffffffffffffffffffffffffffffffffffffffff16600560006001846109d591906117f8565b815260200190815260200160002060030160009054906101000a900473ffffffffffffffffffffffffffffffffffffffff1673ffffffffffffffffffffffffffffffffffffffff1603610bb45760056000600183610a3391906117f8565b81526020019081526020016000206040518060e0016040529081600082015481526020016001820160009054906101000a900473ffffffffffffffffffffffffffffffffffffffff1673ffffffffffffffffffffffffffffffffffffffff1673ffffffffffffffffffffffffffffffffffffffff168152602001600282015481526020016003820160009054906101000a900473ffffffffffffffffffffffffffffffffffffffff1673ffffffffffffffffffffffffffffffffffffffff1673ffffffffffffffffffffffffffffffffffffffff1681526020016004820160009054906101000a900473ffffffffffffffffffffffffffffffffffffffff1673ffffffffffffffffffffffffffffffffffffffff1673ffffffffffffffffffffffffffffffffffffffff168152602001600582015481526020016006820160009054906101000a900460ff161515151581525050828481518110610b9a57610b9961182c565b5b60200260200101819052508280610bb09061185b565b9350505b80806001019150506109a3565b5080935050505090565b600460009054906101000a900473ffffffffffffffffffffffffffffffffffffffff1681565b600460009054906101000a900473ffffffffffffffffffffffffffffffffffffffff1673ffffffffffffffffffffffffffffffffffffffff163373ffffffffffffffffffffffffffffffffffffffff1614610c81576040517f08c379a0000000000000000000000000000000000000000000000000000000008152600401610c7890611aca565b60405180910390fd5b8060038190555050565b60606000806000905060005b600154811015610d32573373ffffffffffffffffffffffffffffffffffffffff1660056000600184610cc991906117f8565b815260200190815260200160002060040160009054906101000a900473ffffffffffffffffffffffffffffffffffffffff1673ffffffffffffffffffffffffffffffffffffffff1603610d25578280610d219061185b565b9350505b8080600101915050610c97565b5060008267ffffffffffffffff811115610d4f57610d4e6117c9565b5b604051908082528060200260200182016040528015610d8857816020015b610d75611332565b815260200190600190039081610d6d5790505b50905060005b600154811015610fac573373ffffffffffffffffffffffffffffffffffffffff1660056000600184610dc091906117f8565b815260200190815260200160002060040160009054906101000a900473ffffffffffffffffffffffffffffffffffffffff1673ffffffffffffffffffffffffffffffffffffffff1603610f9f5760056000600183610e1e91906117f8565b81526020019081526020016000206040518060e0016040529081600082015481526020016001820160009054906101000a900473ffffffffffffffffffffffffffffffffffffffff1673ffffffffffffffffffffffffffffffffffffffff1673ffffffffffffffffffffffffffffffffffffffff168152602001600282015481526020016003820160009054906101000a900473ffffffffffffffffffffffffffffffffffffffff1673ffffffffffffffffffffffffffffffffffffffff1673ffffffffffffffffffffffffffffffffffffffff1681526020016004820160009054906101000a900473ffffffffffffffffffffffffffffffffffffffff1673ffffffffffffffffffffffffffffffffffffffff1673ffffffffffffffffffffffffffffffffffffffff168152602001600582015481526020016006820160009054906101000a900460ff161515151581525050828481518110610f8557610f8461182c565b5b60200260200101819052508280610f9b9061185b565b9350505b8080600101915050610d8e565b5080935050505090565b60035481565b60006005600083815260200190815260200160002060050154905060006005600084815260200190815260200160002060020154905060006005600085815260200190815260200160002060010160009054906101000a900473ffffffffffffffffffffffffffffffffffffffff16905082341461106f576040517f08c379a000000000000000000000000000000000000000000000000000000000815260040161106690611b36565b60405180910390fd5b6005600085815260200190815260200160002060030160009054906101000a900473ffffffffffffffffffffffffffffffffffffffff1673ffffffffffffffffffffffffffffffffffffffff166108fc349081150290604051600060405180830381858888f193505050501580156110eb573d6000803e3d6000fd5b508073ffffffffffffffffffffffffffffffffffffffff166323b872dd3033856040518463ffffffff1660e01b8152600401611129939291906119b2565b600060405180830381600087803b15801561114357600080fd5b505af1158015611157573d6000803e3d6000fd5b50505050336005600086815260200190815260200160002060040160006101000a81548173ffffffffffffffffffffffffffffffffffffffff021916908373ffffffffffffffffffffffffffffffffffffffff16021790555060016005600086815260200190815260200160002060060160006101000a81548160ff021916908315150217905550600260008154809291906111f29061185b565b9190505550600460009054906101000a900473ffffffffffffffffffffffffffffffffffffffff1673ffffffffffffffffffffffffffffffffffffffff166108fc6003549081150290604051600060405180830381858888f19350505050158015611261573d6000803e3d6000fd5b507ff261101eda016962750676076c1d2e257afdaa8ab5123480222d26f76e6096408482846005600089815260200190815260200160002060030160009054906101000a900473ffffffffffffffffffffffffffffffffffffffff16338860016040516112d49796959493929190611bb5565b60405180910390a150505050565b60026000540361131e576040517f3ee5aeb500000000000000000000000000000000000000000000000000000000815260040160405180910390fd5b6002600081905550565b6001600081905550565b6040518060e0016040528060008152602001600073ffffffffffffffffffffffffffffffffffffffff16815260200160008152602001600073ffffffffffffffffffffffffffffffffffffffff168152602001600073ffffffffffffffffffffffffffffffffffffffff168152602001600081526020016000151581525090565b6000819050919050565b6113c6816113b3565b82525050565b60006020820190506113e160008301846113bd565b92915050565b600080fd5b6113f5816113b3565b811461140057600080fd5b50565b600081359050611412816113ec565b92915050565b60006020828403121561142e5761142d6113e7565b5b600061143c84828501611403565b91505092915050565b600073ffffffffffffffffffffffffffffffffffffffff82169050919050565b600061147082611445565b9050919050565b61148081611465565b82525050565b600061149182611445565b9050919050565b6114a181611486565b82525050565b60008115159050919050565b6114bc816114a7565b82525050565b600060e0820190506114d7600083018a6113bd565b6114e46020830189611477565b6114f160408301886113bd565b6114fe6060830187611498565b61150b6080830186611498565b61151860a08301856113bd565b61152560c08301846114b3565b98975050505050505050565b600081519050919050565b600082825260208201905092915050565b6000819050602082019050919050565b611566816113b3565b82525050565b61157581611465565b82525050565b61158481611486565b82525050565b611593816114a7565b82525050565b60e0820160008201516115af600085018261155d565b5060208201516115c2602085018261156c565b5060408201516115d5604085018261155d565b5060608201516115e8606085018261157b565b5060808201516115fb608085018261157b565b5060a082015161160e60a085018261155d565b5060c082015161162160c085018261158a565b50505050565b60006116338383611599565b60e08301905092915050565b6000602082019050919050565b600061165782611531565b611661818561153c565b935061166c8361154d565b8060005b8381101561169d5781516116848882611627565b975061168f8361163f565b925050600181019050611670565b5085935050505092915050565b600060208201905081810360008301526116c4818461164c565b905092915050565b6116d581611465565b81146116e057600080fd5b50565b6000813590506116f2816116cc565b92915050565b600080600060608486031215611711576117106113e7565b5b600061171f868287016116e3565b935050602061173086828701611403565b925050604061174186828701611403565b9150509250925092565b60006020820190506117606000830184611498565b92915050565b7f4e487b7100000000000000000000000000000000000000000000000000000000600052601160045260246000fd5b60006117a0826113b3565b91506117ab836113b3565b92508282039050818111156117c3576117c2611766565b5b92915050565b7f4e487b7100000000000000000000000000000000000000000000000000000000600052604160045260246000fd5b6000611803826113b3565b915061180e836113b3565b925082820190508082111561182657611825611766565b5b92915050565b7f4e487b7100000000000000000000000000000000000000000000000000000000600052603260045260246000fd5b6000611866826113b3565b91507fffffffffffffffffffffffffffffffffffffffffffffffffffffffffffffffff820361189857611897611766565b5b600182019050919050565b600082825260208201905092915050565b7f5072696365206d757374206265206174206c6561737420312077656900000000600082015250565b60006118ea601c836118a3565b91506118f5826118b4565b602082019050919050565b60006020820190508181036000830152611919816118dd565b9050919050565b7f5072696365206d75737420626520657175616c20746f206c697374696e67207060008201527f7269636500000000000000000000000000000000000000000000000000000000602082015250565b600061197c6024836118a3565b915061198782611920565b604082019050919050565b600060208201905081810360008301526119ab8161196f565b9050919050565b60006060820190506119c76000830186611477565b6119d46020830185611477565b6119e160408301846113bd565b949350505050565b600060e0820190506119fe600083018a6113bd565b611a0b6020830189611477565b611a1860408301886113bd565b611a256060830187611477565b611a326080830186611477565b611a3f60a08301856113bd565b611a4c60c08301846114b3565b98975050505050505050565b7f4f6e6c79204e4654206d61726b657420706c616365206f776e65722063616e2060008201527f63616c6c20746869732066756e6374696f6e0000000000000000000000000000602082015250565b6000611ab46032836118a3565b9150611abf82611a58565b604082019050919050565b60006020820190508181036000830152611ae381611aa7565b9050919050565b7f506c65617365207375626d697420746865207072696365206f66206e66742100600082015250565b6000611b20601f836118a3565b9150611b2b82611aea565b602082019050919050565b60006020820190508181036000830152611b4f81611b13565b9050919050565b6000819050919050565b6000611b7b611b76611b7184611445565b611b56565b611445565b9050919050565b6000611b8d82611b60565b9050919050565b6000611b9f82611b82565b9050919050565b611baf81611b94565b82525050565b600060e082019050611bca600083018a6113bd565b611bd76020830189611477565b611be460408301886113bd565b611bf16060830187611ba6565b611bfe6080830186611477565b611c0b60a08301856113bd565b611c1860c08301846114b3565b9897505050505050505056fea264697066735822122097a2003beef3f9d49dc782f4ea1175bb2a3f95780f250ff98bcc7fd30ed877f264736f6c63430008180033",
  "linkReferences": {},
  "deployedLinkReferences": {}
}