{
  "_format": "hh-sol-artifact-1",
  "contractName": "NFTMarketPlace",
  "sourceName": "contracts/NFTMarketPlace.sol",
  "abi": [
    {
      "inputs": [],
      "stateMutability": "nonpayable",
      "type": "constructor"
    },
    {
      "inputs": [
        {
          "internalType": "address",
          "name": "sender",
          "type": "address"
        },
        {
          "internalType": "uint256",
          "name": "tokenId",
          "type": "uint256"
        },
        {
          "internalType": "address",
          "name": "owner",
          "type": "address"
        }
      ],
      "name": "ERC721IncorrectOwner",
      "type": "error"
    },
    {
      "inputs": [
        {
          "internalType": "address",
          "name": "operator",
          "type": "address"
        },
        {
          "internalType": "uint256",
          "name": "tokenId",
          "type": "uint256"
        }
      ],
      "name": "ERC721InsufficientApproval",
      "type": "error"
    },
    {
      "inputs": [
        {
          "internalType": "address",
          "name": "approver",
          "type": "address"
        }
      ],
      "name": "ERC721InvalidApprover",
      "type": "error"
    },
    {
      "inputs": [
        {
          "internalType": "address",
          "name": "operator",
          "type": "address"
        }
      ],
      "name": "ERC721InvalidOperator",
      "type": "error"
    },
    {
      "inputs": [
        {
          "internalType": "address",
          "name": "owner",
          "type": "address"
        }
      ],
      "name": "ERC721InvalidOwner",
      "type": "error"
    },
    {
      "inputs": [
        {
          "internalType": "address",
          "name": "receiver",
          "type": "address"
        }
      ],
      "name": "ERC721InvalidReceiver",
      "type": "error"
    },
    {
      "inputs": [
        {
          "internalType": "address",
          "name": "sender",
          "type": "address"
        }
      ],
      "name": "ERC721InvalidSender",
      "type": "error"
    },
    {
      "inputs": [
        {
          "internalType": "uint256",
          "name": "tokenId",
          "type": "uint256"
        }
      ],
      "name": "ERC721NonexistentToken",
      "type": "error"
    },
    {
      "inputs": [],
      "name": "ReentrancyGuardReentrantCall",
      "type": "error"
    },
    {
      "anonymous": false,
      "inputs": [
        {
          "indexed": true,
          "internalType": "address",
          "name": "owner",
          "type": "address"
        },
        {
          "indexed": true,
          "internalType": "address",
          "name": "approved",
          "type": "address"
        },
        {
          "indexed": true,
          "internalType": "uint256",
          "name": "tokenId",
          "type": "uint256"
        }
      ],
      "name": "Approval",
      "type": "event"
    },
    {
      "anonymous": false,
      "inputs": [
        {
          "indexed": true,
          "internalType": "address",
          "name": "owner",
          "type": "address"
        },
        {
          "indexed": true,
          "internalType": "address",
          "name": "operator",
          "type": "address"
        },
        {
          "indexed": false,
          "internalType": "bool",
          "name": "approved",
          "type": "bool"
        }
      ],
      "name": "ApprovalForAll",
      "type": "event"
    },
    {
      "anonymous": false,
      "inputs": [
        {
          "indexed": false,
          "internalType": "uint256",
          "name": "_fromTokenId",
          "type": "uint256"
        },
        {
          "indexed": false,
          "internalType": "uint256",
          "name": "_toTokenId",
          "type": "uint256"
        }
      ],
      "name": "BatchMetadataUpdate",
      "type": "event"
    },
    {
      "anonymous": false,
      "inputs": [
        {
          "indexed": false,
          "internalType": "uint256",
          "name": "_tokenId",
          "type": "uint256"
        }
      ],
      "name": "MetadataUpdate",
      "type": "event"
    },
    {
      "anonymous": false,
      "inputs": [
        {
          "indexed": false,
          "internalType": "uint256",
          "name": "itemId",
          "type": "uint256"
        },
        {
          "indexed": false,
          "internalType": "uint256",
          "name": "tokenId",
          "type": "uint256"
        },
        {
          "indexed": false,
          "internalType": "address",
          "name": "seller",
          "type": "address"
        },
        {
          "indexed": false,
          "internalType": "address",
          "name": "owner",
          "type": "address"
        },
        {
          "indexed": false,
          "internalType": "uint256",
          "name": "price",
          "type": "uint256"
        },
        {
          "indexed": false,
          "internalType": "bool",
          "name": "sold",
          "type": "bool"
        }
      ],
      "name": "NFTMarketItemCreated",
      "type": "event"
    },
    {
      "anonymous": false,
      "inputs": [
        {
          "indexed": false,
          "internalType": "uint256",
          "name": "itemId",
          "type": "uint256"
        },
        {
          "indexed": false,
          "internalType": "uint256",
          "name": "tokenId",
          "type": "uint256"
        },
        {
          "indexed": false,
          "internalType": "address",
          "name": "seller",
          "type": "address"
        },
        {
          "indexed": false,
          "internalType": "address",
          "name": "owner",
          "type": "address"
        },
        {
          "indexed": false,
          "internalType": "uint256",
          "name": "price",
          "type": "uint256"
        },
        {
          "indexed": false,
          "internalType": "bool",
          "name": "sold",
          "type": "bool"
        }
      ],
      "name": "NFTMarketItemSold",
      "type": "event"
    },
    {
      "anonymous": false,
      "inputs": [
        {
          "indexed": true,
          "internalType": "address",
          "name": "from",
          "type": "address"
        },
        {
          "indexed": true,
          "internalType": "address",
          "name": "to",
          "type": "address"
        },
        {
          "indexed": true,
          "internalType": "uint256",
          "name": "tokenId",
          "type": "uint256"
        }
      ],
      "name": "Transfer",
      "type": "event"
    },
    {
      "inputs": [],
      "name": "_itemId",
      "outputs": [
        {
          "internalType": "uint256",
          "name": "",
          "type": "uint256"
        }
      ],
      "stateMutability": "view",
      "type": "function"
    },
    {
      "inputs": [],
      "name": "_itemsSold",
      "outputs": [
        {
          "internalType": "uint256",
          "name": "",
          "type": "uint256"
        }
      ],
      "stateMutability": "view",
      "type": "function"
    },
    {
      "inputs": [],
      "name": "_tokenIds",
      "outputs": [
        {
          "internalType": "uint256",
          "name": "",
          "type": "uint256"
        }
      ],
      "stateMutability": "view",
      "type": "function"
    },
    {
      "inputs": [
        {
          "internalType": "address",
          "name": "to",
          "type": "address"
        },
        {
          "internalType": "uint256",
          "name": "tokenId",
          "type": "uint256"
        }
      ],
      "name": "approve",
      "outputs": [],
      "stateMutability": "nonpayable",
      "type": "function"
    },
    {
      "inputs": [
        {
          "internalType": "address",
          "name": "owner",
          "type": "address"
        }
      ],
      "name": "balanceOf",
      "outputs": [
        {
          "internalType": "uint256",
          "name": "",
          "type": "uint256"
        }
      ],
      "stateMutability": "view",
      "type": "function"
    },
    {
      "inputs": [
        {
          "internalType": "uint256",
          "name": "tokenId",
          "type": "uint256"
        },
        {
          "internalType": "uint256",
          "name": "price",
          "type": "uint256"
        },
        {
          "internalType": "address",
          "name": "seller",
          "type": "address"
        }
      ],
      "name": "createNFTMarketItem",
      "outputs": [],
      "stateMutability": "nonpayable",
      "type": "function"
    },
    {
      "inputs": [
        {
          "internalType": "uint256",
          "name": "itemId",
          "type": "uint256"
        }
      ],
      "name": "createNFTMarketSale",
      "outputs": [],
      "stateMutability": "payable",
      "type": "function"
    },
    {
      "inputs": [
        {
          "internalType": "string",
          "name": "tokenURI",
          "type": "string"
        },
        {
          "internalType": "uint256",
          "name": "price",
          "type": "uint256"
        }
      ],
      "name": "createToken",
      "outputs": [
        {
          "internalType": "uint256",
          "name": "",
          "type": "uint256"
        }
      ],
      "stateMutability": "payable",
      "type": "function"
    },
    {
      "inputs": [],
      "name": "fetchMyCreatedNFT",
      "outputs": [
        {
          "components": [
            {
              "internalType": "uint256",
              "name": "itemId",
              "type": "uint256"
            },
            {
              "internalType": "uint256",
              "name": "tokenId",
              "type": "uint256"
            },
            {
              "internalType": "address payable",
              "name": "seller",
              "type": "address"
            },
            {
              "internalType": "address payable",
              "name": "owner",
              "type": "address"
            },
            {
              "internalType": "uint256",
              "name": "price",
              "type": "uint256"
            },
            {
              "internalType": "bool",
              "name": "sold",
              "type": "bool"
            }
          ],
          "internalType": "struct NFTMarketPlace.NFTMarketItem[]",
          "name": "",
          "type": "tuple[]"
        }
      ],
      "stateMutability": "view",
      "type": "function"
    },
    {
      "inputs": [],
      "name": "fetchMyNFT",
      "outputs": [
        {
          "components": [
            {
              "internalType": "uint256",
              "name": "itemId",
              "type": "uint256"
            },
            {
              "internalType": "uint256",
              "name": "tokenId",
              "type": "uint256"
            },
            {
              "internalType": "address payable",
              "name": "seller",
              "type": "address"
            },
            {
              "internalType": "address payable",
              "name": "owner",
              "type": "address"
            },
            {
              "internalType": "uint256",
              "name": "price",
              "type": "uint256"
            },
            {
              "internalType": "bool",
              "name": "sold",
              "type": "bool"
            }
          ],
          "internalType": "struct NFTMarketPlace.NFTMarketItem[]",
          "name": "",
          "type": "tuple[]"
        }
      ],
      "stateMutability": "view",
      "type": "function"
    },
    {
      "inputs": [],
      "name": "fetchUnsoldNFTMarketItems",
      "outputs": [
        {
          "components": [
            {
              "internalType": "uint256",
              "name": "itemId",
              "type": "uint256"
            },
            {
              "internalType": "uint256",
              "name": "tokenId",
              "type": "uint256"
            },
            {
              "internalType": "address payable",
              "name": "seller",
              "type": "address"
            },
            {
              "internalType": "address payable",
              "name": "owner",
              "type": "address"
            },
            {
              "internalType": "uint256",
              "name": "price",
              "type": "uint256"
            },
            {
              "internalType": "bool",
              "name": "sold",
              "type": "bool"
            }
          ],
          "internalType": "struct NFTMarketPlace.NFTMarketItem[]",
          "name": "",
          "type": "tuple[]"
        }
      ],
      "stateMutability": "view",
      "type": "function"
    },
    {
      "inputs": [
        {
          "internalType": "uint256",
          "name": "tokenId",
          "type": "uint256"
        }
      ],
      "name": "getApproved",
      "outputs": [
        {
          "internalType": "address",
          "name": "",
          "type": "address"
        }
      ],
      "stateMutability": "view",
      "type": "function"
    },
    {
      "inputs": [],
      "name": "getListingPrice",
      "outputs": [
        {
          "internalType": "uint256",
          "name": "",
          "type": "uint256"
        }
      ],
      "stateMutability": "view",
      "type": "function"
    },
    {
      "inputs": [
        {
          "internalType": "address",
          "name": "owner",
          "type": "address"
        },
        {
          "internalType": "address",
          "name": "operator",
          "type": "address"
        }
      ],
      "name": "isApprovedForAll",
      "outputs": [
        {
          "internalType": "bool",
          "name": "",
          "type": "bool"
        }
      ],
      "stateMutability": "view",
      "type": "function"
    },
    {
      "inputs": [],
      "name": "listingPrice",
      "outputs": [
        {
          "internalType": "uint256",
          "name": "",
          "type": "uint256"
        }
      ],
      "stateMutability": "view",
      "type": "function"
    },
    {
      "inputs": [],
      "name": "name",
      "outputs": [
        {
          "internalType": "string",
          "name": "",
          "type": "string"
        }
      ],
      "stateMutability": "view",
      "type": "function"
    },
    {
      "inputs": [],
      "name": "owner",
      "outputs": [
        {
          "internalType": "address payable",
          "name": "",
          "type": "address"
        }
      ],
      "stateMutability": "view",
      "type": "function"
    },
    {
      "inputs": [
        {
          "internalType": "uint256",
          "name": "tokenId",
          "type": "uint256"
        }
      ],
      "name": "ownerOf",
      "outputs": [
        {
          "internalType": "address",
          "name": "",
          "type": "address"
        }
      ],
      "stateMutability": "view",
      "type": "function"
    },
    {
      "inputs": [
        {
          "internalType": "address",
          "name": "from",
          "type": "address"
        },
        {
          "internalType": "address",
          "name": "to",
          "type": "address"
        },
        {
          "internalType": "uint256",
          "name": "tokenId",
          "type": "uint256"
        }
      ],
      "name": "safeTransferFrom",
      "outputs": [],
      "stateMutability": "nonpayable",
      "type": "function"
    },
    {
      "inputs": [
        {
          "internalType": "address",
          "name": "from",
          "type": "address"
        },
        {
          "internalType": "address",
          "name": "to",
          "type": "address"
        },
        {
          "internalType": "uint256",
          "name": "tokenId",
          "type": "uint256"
        },
        {
          "internalType": "bytes",
          "name": "data",
          "type": "bytes"
        }
      ],
      "name": "safeTransferFrom",
      "outputs": [],
      "stateMutability": "nonpayable",
      "type": "function"
    },
    {
      "inputs": [
        {
          "internalType": "address",
          "name": "operator",
          "type": "address"
        },
        {
          "internalType": "bool",
          "name": "approved",
          "type": "bool"
        }
      ],
      "name": "setApprovalForAll",
      "outputs": [],
      "stateMutability": "nonpayable",
      "type": "function"
    },
    {
      "inputs": [
        {
          "internalType": "bytes4",
          "name": "interfaceId",
          "type": "bytes4"
        }
      ],
      "name": "supportsInterface",
      "outputs": [
        {
          "internalType": "bool",
          "name": "",
          "type": "bool"
        }
      ],
      "stateMutability": "view",
      "type": "function"
    },
    {
      "inputs": [],
      "name": "symbol",
      "outputs": [
        {
          "internalType": "string",
          "name": "",
          "type": "string"
        }
      ],
      "stateMutability": "view",
      "type": "function"
    },
    {
      "inputs": [
        {
          "internalType": "uint256",
          "name": "",
          "type": "uint256"
        }
      ],
      "name": "tidToMarket",
      "outputs": [
        {
          "internalType": "uint256",
          "name": "itemId",
          "type": "uint256"
        },
        {
          "internalType": "uint256",
          "name": "tokenId",
          "type": "uint256"
        },
        {
          "internalType": "address payable",
          "name": "seller",
          "type": "address"
        },
        {
          "internalType": "address payable",
          "name": "owner",
          "type": "address"
        },
        {
          "internalType": "uint256",
          "name": "price",
          "type": "uint256"
        },
        {
          "internalType": "bool",
          "name": "sold",
          "type": "bool"
        }
      ],
      "stateMutability": "view",
      "type": "function"
    },
    {
      "inputs": [
        {
          "internalType": "uint256",
          "name": "tokenId",
          "type": "uint256"
        }
      ],
      "name": "tokenURI",
      "outputs": [
        {
          "internalType": "string",
          "name": "",
          "type": "string"
        }
      ],
      "stateMutability": "view",
      "type": "function"
    },
    {
      "inputs": [
        {
          "internalType": "address",
          "name": "from",
          "type": "address"
        },
        {
          "internalType": "address",
          "name": "to",
          "type": "address"
        },
        {
          "internalType": "uint256",
          "name": "tokenId",
          "type": "uint256"
        }
      ],
      "name": "transferFrom",
      "outputs": [],
      "stateMutability": "nonpayable",
      "type": "function"
    },
    {
      "inputs": [
        {
          "internalType": "uint256",
          "name": "_listingPrice",
          "type": "uint256"
        }
      ],
      "name": "updateListingPrice",
      "outputs": [],
      "stateMutability": "nonpayable",
      "type": "function"
    }
  ],
  "bytecode": "0x608060405266071afd498d0000600b553480156200001c57600080fd5b506040518060400160405280600a81526020017f43616e766173204e4654000000000000000000000000000000000000000000008152506040518060400160405280600481526020017f434e46540000000000000000000000000000000000000000000000000000000081525060016000819055508160019081620000a2919062000378565b508060029081620000b4919062000378565b50505033600c60006101000a81548173ffffffffffffffffffffffffffffffffffffffff021916908373ffffffffffffffffffffffffffffffffffffffff1602179055506200045f565b600081519050919050565b7f4e487b7100000000000000000000000000000000000000000000000000000000600052604160045260246000fd5b7f4e487b7100000000000000000000000000000000000000000000000000000000600052602260045260246000fd5b600060028204905060018216806200018057607f821691505b60208210810362000196576200019562000138565b5b50919050565b60008190508160005260206000209050919050565b60006020601f8301049050919050565b600082821b905092915050565b600060088302620002007fffffffffffffffffffffffffffffffffffffffffffffffffffffffffffffffff82620001c1565b6200020c8683620001c1565b95508019841693508086168417925050509392505050565b6000819050919050565b6000819050919050565b600062000259620002536200024d8462000224565b6200022e565b62000224565b9050919050565b6000819050919050565b620002758362000238565b6200028d620002848262000260565b848454620001ce565b825550505050565b600090565b620002a462000295565b620002b18184846200026a565b505050565b5b81811015620002d957620002cd6000826200029a565b600181019050620002b7565b5050565b601f8211156200032857620002f2816200019c565b620002fd84620001b1565b810160208510156200030d578190505b620003256200031c85620001b1565b830182620002b6565b50505b505050565b600082821c905092915050565b60006200034d600019846008026200032d565b1980831691505092915050565b60006200036883836200033a565b9150826002028217905092915050565b6200038382620000fe565b67ffffffffffffffff8111156200039f576200039e62000109565b5b620003ab825462000167565b620003b8828285620002dd565b600060209050601f831160018114620003f05760008415620003db578287015190505b620003e785826200035a565b86555062000457565b601f19841662000400866200019c565b60005b828110156200042a5784890151825560018201915060208501945060208101905062000403565b868310156200044a578489015162000446601f8916826200033a565b8355505b6001600288020188555050505b505050505050565b613de4806200046f6000396000f3fe60806040526004361061019c5760003560e01c8063798068af116100ec578063b88d4fde1161008a578063c87b56dd11610064578063c87b56dd146105d4578063d9ce85b014610611578063e1f708131461063c578063e985e9c5146106585761019c565b8063b88d4fde14610555578063c18763f71461057e578063c78f19f9146105a95761019c565b806395d89b41116100c657806395d89b41146104ad578063a22cb465146104d8578063aa46a40014610501578063ae677aa31461052c5761019c565b8063798068af1461042e57806387506a0d146104575780638da5cb5b146104825761019c565b80633c73bd53116101595780636352211e116101335780636352211e1461035957806370a082311461039657806372b3b620146103d3578063757173f6146104035761019c565b80633c73bd53146102c357806342842e0e146103055780635c47cf261461032e5761019c565b806301ffc9a7146101a157806306fdde03146101de578063081812fc14610209578063095ea7b31461024657806312e855851461026f57806323b872dd1461029a575b600080fd5b3480156101ad57600080fd5b506101c860048036038101906101c39190612c03565b610695565b6040516101d59190612c4b565b60405180910390f35b3480156101ea57600080fd5b506101f36106f6565b6040516102009190612cf6565b60405180910390f35b34801561021557600080fd5b50610230600480360381019061022b9190612d4e565b610788565b60405161023d9190612dbc565b60405180910390f35b34801561025257600080fd5b5061026d60048036038101906102689190612e03565b6107a4565b005b34801561027b57600080fd5b506102846107ba565b6040516102919190612e52565b60405180910390f35b3480156102a657600080fd5b506102c160048036038101906102bc9190612e6d565b6107c4565b005b3480156102cf57600080fd5b506102ea60048036038101906102e59190612d4e565b6108c6565b6040516102fc96959493929190612ee1565b60405180910390f35b34801561031157600080fd5b5061032c60048036038101906103279190612e6d565b61094f565b005b34801561033a57600080fd5b5061034361096f565b6040516103509190613099565b60405180910390f35b34801561036557600080fd5b50610380600480360381019061037b9190612d4e565b610bb4565b60405161038d9190612dbc565b60405180910390f35b3480156103a257600080fd5b506103bd60048036038101906103b891906130bb565b610bc6565b6040516103ca9190612e52565b60405180910390f35b6103ed60048036038101906103e8919061321d565b610c80565b6040516103fa9190612e52565b60405180910390f35b34801561040f57600080fd5b50610418610d6c565b6040516104259190613099565b60405180910390f35b34801561043a57600080fd5b5061045560048036038101906104509190613279565b611041565b005b34801561046357600080fd5b5061046c6111f1565b6040516104799190612e52565b60405180910390f35b34801561048e57600080fd5b506104976111f7565b6040516104a491906132cc565b60405180910390f35b3480156104b957600080fd5b506104c261121d565b6040516104cf9190612cf6565b60405180910390f35b3480156104e457600080fd5b506104ff60048036038101906104fa9190613313565b6112af565b005b34801561050d57600080fd5b506105166112c5565b6040516105239190612e52565b60405180910390f35b34801561053857600080fd5b50610553600480360381019061054e9190612d4e565b6112cb565b005b34801561056157600080fd5b5061057c600480360381019061057791906133f4565b611365565b005b34801561058a57600080fd5b50610593611382565b6040516105a09190613099565b60405180910390f35b3480156105b557600080fd5b506105be611657565b6040516105cb9190612e52565b60405180910390f35b3480156105e057600080fd5b506105fb60048036038101906105f69190612d4e565b61165d565b6040516106089190612cf6565b60405180910390f35b34801561061d57600080fd5b50610626611770565b6040516106339190612e52565b60405180910390f35b61065660048036038101906106519190612d4e565b611776565b005b34801561066457600080fd5b5061067f600480360381019061067a9190613477565b6119fa565b60405161068c9190612c4b565b60405180910390f35b6000634906490660e01b7bffffffffffffffffffffffffffffffffffffffffffffffffffffffff1916827bffffffffffffffffffffffffffffffffffffffffffffffffffffffff191614806106ef57506106ee82611a8e565b5b9050919050565b606060018054610705906134e6565b80601f0160208091040260200160405190810160405280929190818152602001828054610731906134e6565b801561077e5780601f106107535761010080835404028352916020019161077e565b820191906000526020600020905b81548152906001019060200180831161076157829003601f168201915b5050505050905090565b600061079382611b70565b5061079d82611bf8565b9050919050565b6107b682826107b1611c35565b611c3d565b5050565b6000600b54905090565b600073ffffffffffffffffffffffffffffffffffffffff168273ffffffffffffffffffffffffffffffffffffffff16036108365760006040517f64a0ae9200000000000000000000000000000000000000000000000000000000815260040161082d9190612dbc565b60405180910390fd5b600061084a8383610845611c35565b611c4f565b90508373ffffffffffffffffffffffffffffffffffffffff168173ffffffffffffffffffffffffffffffffffffffff16146108c0578382826040517f64283d7b0000000000000000000000000000000000000000000000000000000081526004016108b793929190613517565b60405180910390fd5b50505050565b600d6020528060005260406000206000915090508060000154908060010154908060020160009054906101000a900473ffffffffffffffffffffffffffffffffffffffff16908060030160009054906101000a900473ffffffffffffffffffffffffffffffffffffffff16908060040154908060050160009054906101000a900460ff16905086565b61096a83838360405180602001604052806000815250611365565b505050565b60606000600a54600954610983919061357d565b90506000808267ffffffffffffffff8111156109a2576109a16130f2565b5b6040519080825280602002602001820160405280156109db57816020015b6109c8612b33565b8152602001906001900390816109c05790505b50905060005b600954811015610baa57600073ffffffffffffffffffffffffffffffffffffffff16600d6000600184610a1491906135b1565b815260200190815260200160002060030160009054906101000a900473ffffffffffffffffffffffffffffffffffffffff1673ffffffffffffffffffffffffffffffffffffffff1603610b9d57600d6000600183610a7291906135b1565b81526020019081526020016000206040518060c001604052908160008201548152602001600182015481526020016002820160009054906101000a900473ffffffffffffffffffffffffffffffffffffffff1673ffffffffffffffffffffffffffffffffffffffff1673ffffffffffffffffffffffffffffffffffffffff1681526020016003820160009054906101000a900473ffffffffffffffffffffffffffffffffffffffff1673ffffffffffffffffffffffffffffffffffffffff1673ffffffffffffffffffffffffffffffffffffffff168152602001600482015481526020016005820160009054906101000a900460ff161515151581525050828481518110610b8357610b826135e5565b5b60200260200101819052508280610b9990613614565b9350505b80806001019150506109e1565b5080935050505090565b6000610bbf82611b70565b9050919050565b60008073ffffffffffffffffffffffffffffffffffffffff168273ffffffffffffffffffffffffffffffffffffffff1603610c395760006040517f89c62b64000000000000000000000000000000000000000000000000000000008152600401610c309190612dbc565b60405180910390fd5b600460008373ffffffffffffffffffffffffffffffffffffffff1673ffffffffffffffffffffffffffffffffffffffff168152602001908152602001600020549050919050565b6000610c8a611e69565b60008211610ccd576040517f08c379a0000000000000000000000000000000000000000000000000000000008152600401610cc4906136a8565b60405180910390fd5b600b543414610d11576040517f08c379a0000000000000000000000000000000000000000000000000000000008152600401610d089061373a565b60405180910390fd5b60086000815480929190610d2490613614565b9190505550610d3533600854611eaf565b610d4160085484611fa8565b610d4c3060016112af565b610d596008548333611041565b6008549050610d66612004565b92915050565b60606000806000905060005b600954811015610e13573373ffffffffffffffffffffffffffffffffffffffff16600d6000600184610daa91906135b1565b815260200190815260200160002060020160009054906101000a900473ffffffffffffffffffffffffffffffffffffffff1673ffffffffffffffffffffffffffffffffffffffff1603610e06578280610e0290613614565b9350505b8080600101915050610d78565b5060008267ffffffffffffffff811115610e3057610e2f6130f2565b5b604051908082528060200260200182016040528015610e6957816020015b610e56612b33565b815260200190600190039081610e4e5790505b50905060005b600954811015611037573373ffffffffffffffffffffffffffffffffffffffff16600d6000600184610ea191906135b1565b815260200190815260200160002060020160009054906101000a900473ffffffffffffffffffffffffffffffffffffffff1673ffffffffffffffffffffffffffffffffffffffff160361102a57600d6000600183610eff91906135b1565b81526020019081526020016000206040518060c001604052908160008201548152602001600182015481526020016002820160009054906101000a900473ffffffffffffffffffffffffffffffffffffffff1673ffffffffffffffffffffffffffffffffffffffff1673ffffffffffffffffffffffffffffffffffffffff1681526020016003820160009054906101000a900473ffffffffffffffffffffffffffffffffffffffff1673ffffffffffffffffffffffffffffffffffffffff1673ffffffffffffffffffffffffffffffffffffffff168152602001600482015481526020016005820160009054906101000a900460ff1615151515815250508284815181106110105761100f6135e5565b5b6020026020010181905250828061102690613614565b9350505b8080600101915050610e6f565b5080935050505090565b6009600081548092919061105490613614565b91905055506040518060c0016040528060095481526020018481526020018273ffffffffffffffffffffffffffffffffffffffff168152602001600073ffffffffffffffffffffffffffffffffffffffff16815260200183815260200160001515815250600d60006009548152602001908152602001600020600082015181600001556020820151816001015560408201518160020160006101000a81548173ffffffffffffffffffffffffffffffffffffffff021916908373ffffffffffffffffffffffffffffffffffffffff16021790555060608201518160030160006101000a81548173ffffffffffffffffffffffffffffffffffffffff021916908373ffffffffffffffffffffffffffffffffffffffff1602179055506080820151816004015560a08201518160050160006101000a81548160ff0219169083151502179055509050506111a78130856107c4565b7feb33e0e84d4c6bac20e6db3adff16159f5de4cba83f856491becddf6bf8a8fb1600954848360008660006040516111e49695949392919061375a565b60405180910390a1505050565b600a5481565b600c60009054906101000a900473ffffffffffffffffffffffffffffffffffffffff1681565b60606002805461122c906134e6565b80601f0160208091040260200160405190810160405280929190818152602001828054611258906134e6565b80156112a55780601f1061127a576101008083540402835291602001916112a5565b820191906000526020600020905b81548152906001019060200180831161128857829003601f168201915b5050505050905090565b6112c16112ba611c35565b838361200e565b5050565b60085481565b600c60009054906101000a900473ffffffffffffffffffffffffffffffffffffffff1673ffffffffffffffffffffffffffffffffffffffff163373ffffffffffffffffffffffffffffffffffffffff161461135b576040517f08c379a00000000000000000000000000000000000000000000000000000000081526004016113529061382d565b60405180910390fd5b80600b8190555050565b6113708484846107c4565b61137c8484848461217d565b50505050565b60606000806000905060005b600954811015611429573373ffffffffffffffffffffffffffffffffffffffff16600d60006001846113c091906135b1565b815260200190815260200160002060030160009054906101000a900473ffffffffffffffffffffffffffffffffffffffff1673ffffffffffffffffffffffffffffffffffffffff160361141c57828061141890613614565b9350505b808060010191505061138e565b5060008267ffffffffffffffff811115611446576114456130f2565b5b60405190808252806020026020018201604052801561147f57816020015b61146c612b33565b8152602001906001900390816114645790505b50905060005b60095481101561164d573373ffffffffffffffffffffffffffffffffffffffff16600d60006001846114b791906135b1565b815260200190815260200160002060030160009054906101000a900473ffffffffffffffffffffffffffffffffffffffff1673ffffffffffffffffffffffffffffffffffffffff160361164057600d600060018361151591906135b1565b81526020019081526020016000206040518060c001604052908160008201548152602001600182015481526020016002820160009054906101000a900473ffffffffffffffffffffffffffffffffffffffff1673ffffffffffffffffffffffffffffffffffffffff1673ffffffffffffffffffffffffffffffffffffffff1681526020016003820160009054906101000a900473ffffffffffffffffffffffffffffffffffffffff1673ffffffffffffffffffffffffffffffffffffffff1673ffffffffffffffffffffffffffffffffffffffff168152602001600482015481526020016005820160009054906101000a900460ff161515151581525050828481518110611626576116256135e5565b5b6020026020010181905250828061163c90613614565b9350505b8080600101915050611485565b5080935050505090565b600b5481565b606061166882611b70565b506000600760008481526020019081526020016000208054611689906134e6565b80601f01602080910402602001604051908101604052809291908181526020018280546116b5906134e6565b80156117025780601f106116d757610100808354040283529160200191611702565b820191906000526020600020905b8154815290600101906020018083116116e557829003601f168201915b505050505090506000611713612334565b9050600081510361172857819250505061176b565b60008251111561175d578082604051602001611745929190613889565b6040516020818303038152906040529250505061176b565b6117668461234b565b925050505b919050565b60095481565b6000600d60008381526020019081526020016000206004015490506000600d60008481526020019081526020016000206001015490508134146117ee576040517f08c379a00000000000000000000000000000000000000000000000000000000081526004016117e59061391f565b60405180910390fd5b600d600084815260200190815260200160002060020160009054906101000a900473ffffffffffffffffffffffffffffffffffffffff1673ffffffffffffffffffffffffffffffffffffffff166108fc349081150290604051600060405180830381858888f1935050505015801561186a573d6000803e3d6000fd5b506118763033836123b4565b33600d600085815260200190815260200160002060030160006101000a81548173ffffffffffffffffffffffffffffffffffffffff021916908373ffffffffffffffffffffffffffffffffffffffff1602179055506001600d600085815260200190815260200160002060050160006101000a81548160ff021916908315150217905550600a600081548092919061190d90613614565b9190505550600c60009054906101000a900473ffffffffffffffffffffffffffffffffffffffff1673ffffffffffffffffffffffffffffffffffffffff166108fc600b549081150290604051600060405180830381858888f1935050505015801561197c573d6000803e3d6000fd5b507ff013f696ab704fd92c8941dc3f73a20877f915cf77f3291f73f95778c456b3578382600d600087815260200190815260200160002060020160009054906101000a900473ffffffffffffffffffffffffffffffffffffffff16338660016040516119ed9695949392919061399e565b60405180910390a1505050565b6000600660008473ffffffffffffffffffffffffffffffffffffffff1673ffffffffffffffffffffffffffffffffffffffff16815260200190815260200160002060008373ffffffffffffffffffffffffffffffffffffffff1673ffffffffffffffffffffffffffffffffffffffff16815260200190815260200160002060009054906101000a900460ff16905092915050565b60007f80ac58cd000000000000000000000000000000000000000000000000000000007bffffffffffffffffffffffffffffffffffffffffffffffffffffffff1916827bffffffffffffffffffffffffffffffffffffffffffffffffffffffff19161480611b5957507f5b5e139f000000000000000000000000000000000000000000000000000000007bffffffffffffffffffffffffffffffffffffffffffffffffffffffff1916827bffffffffffffffffffffffffffffffffffffffffffffffffffffffff1916145b80611b695750611b6882612521565b5b9050919050565b600080611b7c8361258b565b9050600073ffffffffffffffffffffffffffffffffffffffff168173ffffffffffffffffffffffffffffffffffffffff1603611bef57826040517f7e273289000000000000000000000000000000000000000000000000000000008152600401611be69190612e52565b60405180910390fd5b80915050919050565b60006005600083815260200190815260200160002060009054906101000a900473ffffffffffffffffffffffffffffffffffffffff169050919050565b600033905090565b611c4a83838360016125c8565b505050565b600080611c5b8461258b565b9050600073ffffffffffffffffffffffffffffffffffffffff168373ffffffffffffffffffffffffffffffffffffffff1614611c9d57611c9c81848661278d565b5b600073ffffffffffffffffffffffffffffffffffffffff168173ffffffffffffffffffffffffffffffffffffffff1614611d2e57611cdf6000856000806125c8565b6001600460008373ffffffffffffffffffffffffffffffffffffffff1673ffffffffffffffffffffffffffffffffffffffff168152602001908152602001600020600082825403925050819055505b600073ffffffffffffffffffffffffffffffffffffffff168573ffffffffffffffffffffffffffffffffffffffff1614611db1576001600460008773ffffffffffffffffffffffffffffffffffffffff1673ffffffffffffffffffffffffffffffffffffffff168152602001908152602001600020600082825401925050819055505b846003600086815260200190815260200160002060006101000a81548173ffffffffffffffffffffffffffffffffffffffff021916908373ffffffffffffffffffffffffffffffffffffffff160217905550838573ffffffffffffffffffffffffffffffffffffffff168273ffffffffffffffffffffffffffffffffffffffff167fddf252ad1be2c89b69c2b068fc378daa952ba7f163c4a11628f55a4df523b3ef60405160405180910390a4809150509392505050565b600260005403611ea5576040517f3ee5aeb500000000000000000000000000000000000000000000000000000000815260040160405180910390fd5b6002600081905550565b600073ffffffffffffffffffffffffffffffffffffffff168273ffffffffffffffffffffffffffffffffffffffff1603611f215760006040517f64a0ae92000000000000000000000000000000000000000000000000000000008152600401611f189190612dbc565b60405180910390fd5b6000611f2f83836000611c4f565b9050600073ffffffffffffffffffffffffffffffffffffffff168173ffffffffffffffffffffffffffffffffffffffff1614611fa35760006040517f73c6ac6e000000000000000000000000000000000000000000000000000000008152600401611f9a9190612dbc565b60405180910390fd5b505050565b80600760008481526020019081526020016000209081611fc89190613ba1565b507ff8e1a15aba9398e019f0b49df1a4fde98ee17ae345cb5f6b5e2c27f5033e8ce782604051611ff89190612e52565b60405180910390a15050565b6001600081905550565b600073ffffffffffffffffffffffffffffffffffffffff168273ffffffffffffffffffffffffffffffffffffffff160361207f57816040517f5b08ba180000000000000000000000000000000000000000000000000000000081526004016120769190612dbc565b60405180910390fd5b80600660008573ffffffffffffffffffffffffffffffffffffffff1673ffffffffffffffffffffffffffffffffffffffff16815260200190815260200160002060008473ffffffffffffffffffffffffffffffffffffffff1673ffffffffffffffffffffffffffffffffffffffff16815260200190815260200160002060006101000a81548160ff0219169083151502179055508173ffffffffffffffffffffffffffffffffffffffff168373ffffffffffffffffffffffffffffffffffffffff167f17307eab39ab6107e8899845ad3d59bd9653f200f220920489ca2b5937696c31836040516121709190612c4b565b60405180910390a3505050565b60008373ffffffffffffffffffffffffffffffffffffffff163b111561232e578273ffffffffffffffffffffffffffffffffffffffff1663150b7a026121c1611c35565b8685856040518563ffffffff1660e01b81526004016121e39493929190613cc8565b6020604051808303816000875af192505050801561221f57506040513d601f19601f8201168201806040525081019061221c9190613d29565b60015b6122a3573d806000811461224f576040519150601f19603f3d011682016040523d82523d6000602084013e612254565b606091505b50600081510361229b57836040517f64a0ae920000000000000000000000000000000000000000000000000000000081526004016122929190612dbc565b60405180910390fd5b805181602001fd5b63150b7a0260e01b7bffffffffffffffffffffffffffffffffffffffffffffffffffffffff1916817bffffffffffffffffffffffffffffffffffffffffffffffffffffffff19161461232c57836040517f64a0ae920000000000000000000000000000000000000000000000000000000081526004016123239190612dbc565b60405180910390fd5b505b50505050565b606060405180602001604052806000815250905090565b606061235682611b70565b506000612361612334565b9050600081511161238157604051806020016040528060008152506123ac565b8061238b84612851565b60405160200161239c929190613889565b6040516020818303038152906040525b915050919050565b600073ffffffffffffffffffffffffffffffffffffffff168273ffffffffffffffffffffffffffffffffffffffff16036124265760006040517f64a0ae9200000000000000000000000000000000000000000000000000000000815260040161241d9190612dbc565b60405180910390fd5b600061243483836000611c4f565b9050600073ffffffffffffffffffffffffffffffffffffffff168173ffffffffffffffffffffffffffffffffffffffff16036124a757816040517f7e27328900000000000000000000000000000000000000000000000000000000815260040161249e9190612e52565b60405180910390fd5b8373ffffffffffffffffffffffffffffffffffffffff168173ffffffffffffffffffffffffffffffffffffffff161461251b578382826040517f64283d7b00000000000000000000000000000000000000000000000000000000815260040161251293929190613517565b60405180910390fd5b50505050565b60007f01ffc9a7000000000000000000000000000000000000000000000000000000007bffffffffffffffffffffffffffffffffffffffffffffffffffffffff1916827bffffffffffffffffffffffffffffffffffffffffffffffffffffffff1916149050919050565b60006003600083815260200190815260200160002060009054906101000a900473ffffffffffffffffffffffffffffffffffffffff169050919050565b80806126015750600073ffffffffffffffffffffffffffffffffffffffff168273ffffffffffffffffffffffffffffffffffffffff1614155b1561273557600061261184611b70565b9050600073ffffffffffffffffffffffffffffffffffffffff168373ffffffffffffffffffffffffffffffffffffffff161415801561267c57508273ffffffffffffffffffffffffffffffffffffffff168173ffffffffffffffffffffffffffffffffffffffff1614155b801561268f575061268d81846119fa565b155b156126d157826040517fa9fbf51f0000000000000000000000000000000000000000000000000000000081526004016126c89190612dbc565b60405180910390fd5b811561273357838573ffffffffffffffffffffffffffffffffffffffff168273ffffffffffffffffffffffffffffffffffffffff167f8c5be1e5ebec7d5bd14f71427d1e84f3dd0314c0f7b2291e5b200ac8c7c3b92560405160405180910390a45b505b836005600085815260200190815260200160002060006101000a81548173ffffffffffffffffffffffffffffffffffffffff021916908373ffffffffffffffffffffffffffffffffffffffff16021790555050505050565b61279883838361291f565b61284c57600073ffffffffffffffffffffffffffffffffffffffff168373ffffffffffffffffffffffffffffffffffffffff160361280d57806040517f7e2732890000000000000000000000000000000000000000000000000000000081526004016128049190612e52565b60405180910390fd5b81816040517f177e802f000000000000000000000000000000000000000000000000000000008152600401612843929190613d56565b60405180910390fd5b505050565b606060006001612860846129e0565b01905060008167ffffffffffffffff81111561287f5761287e6130f2565b5b6040519080825280601f01601f1916602001820160405280156128b15781602001600182028036833780820191505090505b509050600082602001820190505b600115612914578080600190039150507f3031323334353637383961626364656600000000000000000000000000000000600a86061a8153600a858161290857612907613d7f565b5b049450600085036128bf575b819350505050919050565b60008073ffffffffffffffffffffffffffffffffffffffff168373ffffffffffffffffffffffffffffffffffffffff16141580156129d757508273ffffffffffffffffffffffffffffffffffffffff168473ffffffffffffffffffffffffffffffffffffffff161480612998575061299784846119fa565b5b806129d657508273ffffffffffffffffffffffffffffffffffffffff166129be83611bf8565b73ffffffffffffffffffffffffffffffffffffffff16145b5b90509392505050565b600080600090507a184f03e93ff9f4daa797ed6e38ed64bf6a1f0100000000000000008310612a3e577a184f03e93ff9f4daa797ed6e38ed64bf6a1f0100000000000000008381612a3457612a33613d7f565b5b0492506040810190505b6d04ee2d6d415b85acef81000000008310612a7b576d04ee2d6d415b85acef81000000008381612a7157612a70613d7f565b5b0492506020810190505b662386f26fc100008310612aaa57662386f26fc100008381612aa057612a9f613d7f565b5b0492506010810190505b6305f5e1008310612ad3576305f5e1008381612ac957612ac8613d7f565b5b0492506008810190505b6127108310612af8576127108381612aee57612aed613d7f565b5b0492506004810190505b60648310612b1b5760648381612b1157612b10613d7f565b5b0492506002810190505b600a8310612b2a576001810190505b80915050919050565b6040518060c001604052806000815260200160008152602001600073ffffffffffffffffffffffffffffffffffffffff168152602001600073ffffffffffffffffffffffffffffffffffffffff168152602001600081526020016000151581525090565b6000604051905090565b600080fd5b600080fd5b60007fffffffff0000000000000000000000000000000000000000000000000000000082169050919050565b612be081612bab565b8114612beb57600080fd5b50565b600081359050612bfd81612bd7565b92915050565b600060208284031215612c1957612c18612ba1565b5b6000612c2784828501612bee565b91505092915050565b60008115159050919050565b612c4581612c30565b82525050565b6000602082019050612c606000830184612c3c565b92915050565b600081519050919050565b600082825260208201905092915050565b60005b83811015612ca0578082015181840152602081019050612c85565b60008484015250505050565b6000601f19601f8301169050919050565b6000612cc882612c66565b612cd28185612c71565b9350612ce2818560208601612c82565b612ceb81612cac565b840191505092915050565b60006020820190508181036000830152612d108184612cbd565b905092915050565b6000819050919050565b612d2b81612d18565b8114612d3657600080fd5b50565b600081359050612d4881612d22565b92915050565b600060208284031215612d6457612d63612ba1565b5b6000612d7284828501612d39565b91505092915050565b600073ffffffffffffffffffffffffffffffffffffffff82169050919050565b6000612da682612d7b565b9050919050565b612db681612d9b565b82525050565b6000602082019050612dd16000830184612dad565b92915050565b612de081612d9b565b8114612deb57600080fd5b50565b600081359050612dfd81612dd7565b92915050565b60008060408385031215612e1a57612e19612ba1565b5b6000612e2885828601612dee565b9250506020612e3985828601612d39565b9150509250929050565b612e4c81612d18565b82525050565b6000602082019050612e676000830184612e43565b92915050565b600080600060608486031215612e8657612e85612ba1565b5b6000612e9486828701612dee565b9350506020612ea586828701612dee565b9250506040612eb686828701612d39565b9150509250925092565b6000612ecb82612d7b565b9050919050565b612edb81612ec0565b82525050565b600060c082019050612ef66000830189612e43565b612f036020830188612e43565b612f106040830187612ed2565b612f1d6060830186612ed2565b612f2a6080830185612e43565b612f3760a0830184612c3c565b979650505050505050565b600081519050919050565b600082825260208201905092915050565b6000819050602082019050919050565b612f7781612d18565b82525050565b612f8681612ec0565b82525050565b612f9581612c30565b82525050565b60c082016000820151612fb16000850182612f6e565b506020820151612fc46020850182612f6e565b506040820151612fd76040850182612f7d565b506060820151612fea6060850182612f7d565b506080820151612ffd6080850182612f6e565b5060a082015161301060a0850182612f8c565b50505050565b60006130228383612f9b565b60c08301905092915050565b6000602082019050919050565b600061304682612f42565b6130508185612f4d565b935061305b83612f5e565b8060005b8381101561308c5781516130738882613016565b975061307e8361302e565b92505060018101905061305f565b5085935050505092915050565b600060208201905081810360008301526130b3818461303b565b905092915050565b6000602082840312156130d1576130d0612ba1565b5b60006130df84828501612dee565b91505092915050565b600080fd5b600080fd5b7f4e487b7100000000000000000000000000000000000000000000000000000000600052604160045260246000fd5b61312a82612cac565b810181811067ffffffffffffffff82111715613149576131486130f2565b5b80604052505050565b600061315c612b97565b90506131688282613121565b919050565b600067ffffffffffffffff821115613188576131876130f2565b5b61319182612cac565b9050602081019050919050565b82818337600083830152505050565b60006131c06131bb8461316d565b613152565b9050828152602081018484840111156131dc576131db6130ed565b5b6131e784828561319e565b509392505050565b600082601f830112613204576132036130e8565b5b81356132148482602086016131ad565b91505092915050565b6000806040838503121561323457613233612ba1565b5b600083013567ffffffffffffffff81111561325257613251612ba6565b5b61325e858286016131ef565b925050602061326f85828601612d39565b9150509250929050565b60008060006060848603121561329257613291612ba1565b5b60006132a086828701612d39565b93505060206132b186828701612d39565b92505060406132c286828701612dee565b9150509250925092565b60006020820190506132e16000830184612ed2565b92915050565b6132f081612c30565b81146132fb57600080fd5b50565b60008135905061330d816132e7565b92915050565b6000806040838503121561332a57613329612ba1565b5b600061333885828601612dee565b9250506020613349858286016132fe565b9150509250929050565b600067ffffffffffffffff82111561336e5761336d6130f2565b5b61337782612cac565b9050602081019050919050565b600061339761339284613353565b613152565b9050828152602081018484840111156133b3576133b26130ed565b5b6133be84828561319e565b509392505050565b600082601f8301126133db576133da6130e8565b5b81356133eb848260208601613384565b91505092915050565b6000806000806080858703121561340e5761340d612ba1565b5b600061341c87828801612dee565b945050602061342d87828801612dee565b935050604061343e87828801612d39565b925050606085013567ffffffffffffffff81111561345f5761345e612ba6565b5b61346b878288016133c6565b91505092959194509250565b6000806040838503121561348e5761348d612ba1565b5b600061349c85828601612dee565b92505060206134ad85828601612dee565b9150509250929050565b7f4e487b7100000000000000000000000000000000000000000000000000000000600052602260045260246000fd5b600060028204905060018216806134fe57607f821691505b602082108103613511576135106134b7565b5b50919050565b600060608201905061352c6000830186612dad565b6135396020830185612e43565b6135466040830184612dad565b949350505050565b7f4e487b7100000000000000000000000000000000000000000000000000000000600052601160045260246000fd5b600061358882612d18565b915061359383612d18565b92508282039050818111156135ab576135aa61354e565b5b92915050565b60006135bc82612d18565b91506135c783612d18565b92508282019050808211156135df576135de61354e565b5b92915050565b7f4e487b7100000000000000000000000000000000000000000000000000000000600052603260045260246000fd5b600061361f82612d18565b91507fffffffffffffffffffffffffffffffffffffffffffffffffffffffffffffffff82036136515761365061354e565b5b600182019050919050565b7f5072696365206d757374206265206174206c6561737420312077656900000000600082015250565b6000613692601c83612c71565b915061369d8261365c565b602082019050919050565b600060208201905081810360008301526136c181613685565b9050919050565b7f5072696365206d75737420626520657175616c20746f20746865206c6973746960008201527f6e67207072696365000000000000000000000000000000000000000000000000602082015250565b6000613724602883612c71565b915061372f826136c8565b604082019050919050565b6000602082019050818103600083015261375381613717565b9050919050565b600060c08201905061376f6000830189612e43565b61377c6020830188612e43565b6137896040830187612dad565b6137966060830186612dad565b6137a36080830185612e43565b6137b060a0830184612c3c565b979650505050505050565b7f4f6e6c7920746865204e4654206d61726b6574706c616365206f776e6572206360008201527f616e2063616c6c20746869732066756e6374696f6e0000000000000000000000602082015250565b6000613817603583612c71565b9150613822826137bb565b604082019050919050565b600060208201905081810360008301526138468161380a565b9050919050565b600081905092915050565b600061386382612c66565b61386d818561384d565b935061387d818560208601612c82565b80840191505092915050565b60006138958285613858565b91506138a18284613858565b91508190509392505050565b7f506c65617365207375626d6974207468652061736b696e67207072696365206660008201527f6f7220746865204e465400000000000000000000000000000000000000000000602082015250565b6000613909602a83612c71565b9150613914826138ad565b604082019050919050565b60006020820190508181036000830152613938816138fc565b9050919050565b6000819050919050565b600061396461395f61395a84612d7b565b61393f565b612d7b565b9050919050565b600061397682613949565b9050919050565b60006139888261396b565b9050919050565b6139988161397d565b82525050565b600060c0820190506139b36000830189612e43565b6139c06020830188612e43565b6139cd604083018761398f565b6139da6060830186612dad565b6139e76080830185612e43565b6139f460a0830184612c3c565b979650505050505050565b60008190508160005260206000209050919050565b60006020601f8301049050919050565b600082821b905092915050565b600060088302613a617fffffffffffffffffffffffffffffffffffffffffffffffffffffffffffffffff82613a24565b613a6b8683613a24565b95508019841693508086168417925050509392505050565b6000613a9e613a99613a9484612d18565b61393f565b612d18565b9050919050565b6000819050919050565b613ab883613a83565b613acc613ac482613aa5565b848454613a31565b825550505050565b600090565b613ae1613ad4565b613aec818484613aaf565b505050565b5b81811015613b1057613b05600082613ad9565b600181019050613af2565b5050565b601f821115613b5557613b26816139ff565b613b2f84613a14565b81016020851015613b3e578190505b613b52613b4a85613a14565b830182613af1565b50505b505050565b600082821c905092915050565b6000613b7860001984600802613b5a565b1980831691505092915050565b6000613b918383613b67565b9150826002028217905092915050565b613baa82612c66565b67ffffffffffffffff811115613bc357613bc26130f2565b5b613bcd82546134e6565b613bd8828285613b14565b600060209050601f831160018114613c0b5760008415613bf9578287015190505b613c038582613b85565b865550613c6b565b601f198416613c19866139ff565b60005b82811015613c4157848901518255600182019150602085019450602081019050613c1c565b86831015613c5e5784890151613c5a601f891682613b67565b8355505b6001600288020188555050505b505050505050565b600081519050919050565b600082825260208201905092915050565b6000613c9a82613c73565b613ca48185613c7e565b9350613cb4818560208601612c82565b613cbd81612cac565b840191505092915050565b6000608082019050613cdd6000830187612dad565b613cea6020830186612dad565b613cf76040830185612e43565b8181036060830152613d098184613c8f565b905095945050505050565b600081519050613d2381612bd7565b92915050565b600060208284031215613d3f57613d3e612ba1565b5b6000613d4d84828501613d14565b91505092915050565b6000604082019050613d6b6000830185612dad565b613d786020830184612e43565b9392505050565b7f4e487b7100000000000000000000000000000000000000000000000000000000600052601260045260246000fdfea26469706673582212209461b62239fee81f3066f99bcdd139355abe27839c9103549a8d6f1f133b40e364736f6c63430008180033",
  "linkReferences": {},
  "deployedLinkReferences": {}
}