{
  "_format": "hh-sol-artifact-1",
  "contractName": "NFTContract",
  "sourceName": "contracts/NFTContract.sol",
  "abi": [
    {
      "inputs": [
        {
          "internalType": "address",
          "name": "marketPlaceAddress",
          "type": "address"
        }
      ],
      "stateMutability": "nonpayable",
      "type": "constructor"
    },
    {
      "inputs": [
        {
          "internalType": "address",
          "name": "sender",
          "type": "address"
        },
        {
          "internalType": "uint256",
          "name": "tokenId",
          "type": "uint256"
        },
        {
          "internalType": "address",
          "name": "owner",
          "type": "address"
        }
      ],
      "name": "ERC721IncorrectOwner",
      "type": "error"
    },
    {
      "inputs": [
        {
          "internalType": "address",
          "name": "operator",
          "type": "address"
        },
        {
          "internalType": "uint256",
          "name": "tokenId",
          "type": "uint256"
        }
      ],
      "name": "ERC721InsufficientApproval",
      "type": "error"
    },
    {
      "inputs": [
        {
          "internalType": "address",
          "name": "approver",
          "type": "address"
        }
      ],
      "name": "ERC721InvalidApprover",
      "type": "error"
    },
    {
      "inputs": [
        {
          "internalType": "address",
          "name": "operator",
          "type": "address"
        }
      ],
      "name": "ERC721InvalidOperator",
      "type": "error"
    },
    {
      "inputs": [
        {
          "internalType": "address",
          "name": "owner",
          "type": "address"
        }
      ],
      "name": "ERC721InvalidOwner",
      "type": "error"
    },
    {
      "inputs": [
        {
          "internalType": "address",
          "name": "receiver",
          "type": "address"
        }
      ],
      "name": "ERC721InvalidReceiver",
      "type": "error"
    },
    {
      "inputs": [
        {
          "internalType": "address",
          "name": "sender",
          "type": "address"
        }
      ],
      "name": "ERC721InvalidSender",
      "type": "error"
    },
    {
      "inputs": [
        {
          "internalType": "uint256",
          "name": "tokenId",
          "type": "uint256"
        }
      ],
      "name": "ERC721NonexistentToken",
      "type": "error"
    },
    {
      "anonymous": false,
      "inputs": [
        {
          "indexed": true,
          "internalType": "address",
          "name": "owner",
          "type": "address"
        },
        {
          "indexed": true,
          "internalType": "address",
          "name": "approved",
          "type": "address"
        },
        {
          "indexed": true,
          "internalType": "uint256",
          "name": "tokenId",
          "type": "uint256"
        }
      ],
      "name": "Approval",
      "type": "event"
    },
    {
      "anonymous": false,
      "inputs": [
        {
          "indexed": true,
          "internalType": "address",
          "name": "owner",
          "type": "address"
        },
        {
          "indexed": true,
          "internalType": "address",
          "name": "operator",
          "type": "address"
        },
        {
          "indexed": false,
          "internalType": "bool",
          "name": "approved",
          "type": "bool"
        }
      ],
      "name": "ApprovalForAll",
      "type": "event"
    },
    {
      "anonymous": false,
      "inputs": [
        {
          "indexed": false,
          "internalType": "uint256",
          "name": "_fromTokenId",
          "type": "uint256"
        },
        {
          "indexed": false,
          "internalType": "uint256",
          "name": "_toTokenId",
          "type": "uint256"
        }
      ],
      "name": "BatchMetadataUpdate",
      "type": "event"
    },
    {
      "anonymous": false,
      "inputs": [
        {
          "indexed": false,
          "internalType": "uint256",
          "name": "_tokenId",
          "type": "uint256"
        }
      ],
      "name": "MetadataUpdate",
      "type": "event"
    },
    {
      "anonymous": false,
      "inputs": [
        {
          "indexed": true,
          "internalType": "address",
          "name": "from",
          "type": "address"
        },
        {
          "indexed": true,
          "internalType": "address",
          "name": "to",
          "type": "address"
        },
        {
          "indexed": true,
          "internalType": "uint256",
          "name": "tokenId",
          "type": "uint256"
        }
      ],
      "name": "Transfer",
      "type": "event"
    },
    {
      "inputs": [
        {
          "internalType": "address",
          "name": "to",
          "type": "address"
        },
        {
          "internalType": "uint256",
          "name": "tokenId",
          "type": "uint256"
        }
      ],
      "name": "approve",
      "outputs": [],
      "stateMutability": "nonpayable",
      "type": "function"
    },
    {
      "inputs": [
        {
          "internalType": "address",
          "name": "owner",
          "type": "address"
        }
      ],
      "name": "balanceOf",
      "outputs": [
        {
          "internalType": "uint256",
          "name": "",
          "type": "uint256"
        }
      ],
      "stateMutability": "view",
      "type": "function"
    },
    {
      "inputs": [],
      "name": "contractAddress",
      "outputs": [
        {
          "internalType": "address",
          "name": "",
          "type": "address"
        }
      ],
      "stateMutability": "view",
      "type": "function"
    },
    {
      "inputs": [
        {
          "internalType": "string",
          "name": "tokenURI",
          "type": "string"
        }
      ],
      "name": "createToken",
      "outputs": [
        {
          "internalType": "uint256",
          "name": "",
          "type": "uint256"
        }
      ],
      "stateMutability": "nonpayable",
      "type": "function"
    },
    {
      "inputs": [
        {
          "internalType": "uint256",
          "name": "tokenId",
          "type": "uint256"
        }
      ],
      "name": "getApproved",
      "outputs": [
        {
          "internalType": "address",
          "name": "",
          "type": "address"
        }
      ],
      "stateMutability": "view",
      "type": "function"
    },
    {
      "inputs": [
        {
          "internalType": "address",
          "name": "owner",
          "type": "address"
        },
        {
          "internalType": "address",
          "name": "operator",
          "type": "address"
        }
      ],
      "name": "isApprovedForAll",
      "outputs": [
        {
          "internalType": "bool",
          "name": "",
          "type": "bool"
        }
      ],
      "stateMutability": "view",
      "type": "function"
    },
    {
      "inputs": [],
      "name": "name",
      "outputs": [
        {
          "internalType": "string",
          "name": "",
          "type": "string"
        }
      ],
      "stateMutability": "view",
      "type": "function"
    },
    {
      "inputs": [
        {
          "internalType": "uint256",
          "name": "tokenId",
          "type": "uint256"
        }
      ],
      "name": "ownerOf",
      "outputs": [
        {
          "internalType": "address",
          "name": "",
          "type": "address"
        }
      ],
      "stateMutability": "view",
      "type": "function"
    },
    {
      "inputs": [
        {
          "internalType": "address",
          "name": "from",
          "type": "address"
        },
        {
          "internalType": "address",
          "name": "to",
          "type": "address"
        },
        {
          "internalType": "uint256",
          "name": "tokenId",
          "type": "uint256"
        }
      ],
      "name": "safeTransferFrom",
      "outputs": [],
      "stateMutability": "nonpayable",
      "type": "function"
    },
    {
      "inputs": [
        {
          "internalType": "address",
          "name": "from",
          "type": "address"
        },
        {
          "internalType": "address",
          "name": "to",
          "type": "address"
        },
        {
          "internalType": "uint256",
          "name": "tokenId",
          "type": "uint256"
        },
        {
          "internalType": "bytes",
          "name": "data",
          "type": "bytes"
        }
      ],
      "name": "safeTransferFrom",
      "outputs": [],
      "stateMutability": "nonpayable",
      "type": "function"
    },
    {
      "inputs": [
        {
          "internalType": "address",
          "name": "operator",
          "type": "address"
        },
        {
          "internalType": "bool",
          "name": "approved",
          "type": "bool"
        }
      ],
      "name": "setApprovalForAll",
      "outputs": [],
      "stateMutability": "nonpayable",
      "type": "function"
    },
    {
      "inputs": [
        {
          "internalType": "bytes4",
          "name": "interfaceId",
          "type": "bytes4"
        }
      ],
      "name": "supportsInterface",
      "outputs": [
        {
          "internalType": "bool",
          "name": "",
          "type": "bool"
        }
      ],
      "stateMutability": "view",
      "type": "function"
    },
    {
      "inputs": [],
      "name": "symbol",
      "outputs": [
        {
          "internalType": "string",
          "name": "",
          "type": "string"
        }
      ],
      "stateMutability": "view",
      "type": "function"
    },
    {
      "inputs": [
        {
          "internalType": "uint256",
          "name": "tokenId",
          "type": "uint256"
        }
      ],
      "name": "tokenURI",
      "outputs": [
        {
          "internalType": "string",
          "name": "",
          "type": "string"
        }
      ],
      "stateMutability": "view",
      "type": "function"
    },
    {
      "inputs": [
        {
          "internalType": "address",
          "name": "from",
          "type": "address"
        },
        {
          "internalType": "address",
          "name": "to",
          "type": "address"
        },
        {
          "internalType": "uint256",
          "name": "tokenId",
          "type": "uint256"
        }
      ],
      "name": "transferFrom",
      "outputs": [],
      "stateMutability": "nonpayable",
      "type": "function"
    }
  ],
  "bytecode": "0x60806040523480156200001157600080fd5b50604051620029453803806200294583398181016040528101906200003791906200017b565b6040518060400160405280600981526020017f43616e7661204e465400000000000000000000000000000000000000000000008152506040518060400160405280600481526020017f434e4654000000000000000000000000000000000000000000000000000000008152508160009081620000b4919062000427565b508060019081620000c6919062000427565b50505080600860006101000a81548173ffffffffffffffffffffffffffffffffffffffff021916908373ffffffffffffffffffffffffffffffffffffffff160217905550506200050e565b600080fd5b600073ffffffffffffffffffffffffffffffffffffffff82169050919050565b6000620001438262000116565b9050919050565b620001558162000136565b81146200016157600080fd5b50565b60008151905062000175816200014a565b92915050565b60006020828403121562000194576200019362000111565b5b6000620001a48482850162000164565b91505092915050565b600081519050919050565b7f4e487b7100000000000000000000000000000000000000000000000000000000600052604160045260246000fd5b7f4e487b7100000000000000000000000000000000000000000000000000000000600052602260045260246000fd5b600060028204905060018216806200022f57607f821691505b602082108103620002455762000244620001e7565b5b50919050565b60008190508160005260206000209050919050565b60006020601f8301049050919050565b600082821b905092915050565b600060088302620002af7fffffffffffffffffffffffffffffffffffffffffffffffffffffffffffffffff8262000270565b620002bb868362000270565b95508019841693508086168417925050509392505050565b6000819050919050565b6000819050919050565b60006200030862000302620002fc84620002d3565b620002dd565b620002d3565b9050919050565b6000819050919050565b6200032483620002e7565b6200033c62000333826200030f565b8484546200027d565b825550505050565b600090565b6200035362000344565b6200036081848462000319565b505050565b5b8181101562000388576200037c60008262000349565b60018101905062000366565b5050565b601f821115620003d757620003a1816200024b565b620003ac8462000260565b81016020851015620003bc578190505b620003d4620003cb8562000260565b83018262000365565b50505b505050565b600082821c905092915050565b6000620003fc60001984600802620003dc565b1980831691505092915050565b6000620004178383620003e9565b9150826002028217905092915050565b6200043282620001ad565b67ffffffffffffffff8111156200044e576200044d620001b8565b5b6200045a825462000216565b620004678282856200038c565b600060209050601f8311600181146200049f57600084156200048a578287015190505b62000496858262000409565b86555062000506565b601f198416620004af866200024b565b60005b82811015620004d957848901518255600182019150602085019450602081019050620004b2565b86831015620004f95784890151620004f5601f891682620003e9565b8355505b6001600288020188555050505b505050505050565b612427806200051e6000396000f3fe608060405234801561001057600080fd5b50600436106100f55760003560e01c80636352211e11610097578063b88d4fde11610066578063b88d4fde14610296578063c87b56dd146102b2578063e985e9c5146102e2578063f6b4dfb414610312576100f5565b80636352211e146101fc57806370a082311461022c57806395d89b411461025c578063a22cb4651461027a576100f5565b8063095ea7b3116100d3578063095ea7b31461017857806323b872dd1461019457806342842e0e146101b057806345576f94146101cc576100f5565b806301ffc9a7146100fa57806306fdde031461012a578063081812fc14610148575b600080fd5b610114600480360381019061010f9190611892565b610330565b60405161012191906118da565b60405180910390f35b610132610391565b60405161013f9190611985565b60405180910390f35b610162600480360381019061015d91906119dd565b610423565b60405161016f9190611a4b565b60405180910390f35b610192600480360381019061018d9190611a92565b61043f565b005b6101ae60048036038101906101a99190611ad2565b610455565b005b6101ca60048036038101906101c59190611ad2565b610557565b005b6101e660048036038101906101e19190611c5a565b610577565b6040516101f39190611cb2565b60405180910390f35b610216600480360381019061021191906119dd565b6105e0565b6040516102239190611a4b565b60405180910390f35b61024660048036038101906102419190611ccd565b6105f2565b6040516102539190611cb2565b60405180910390f35b6102646106ac565b6040516102719190611985565b60405180910390f35b610294600480360381019061028f9190611d26565b61073e565b005b6102b060048036038101906102ab9190611e07565b610754565b005b6102cc60048036038101906102c791906119dd565b610771565b6040516102d99190611985565b60405180910390f35b6102fc60048036038101906102f79190611e8a565b610884565b60405161030991906118da565b60405180910390f35b61031a610918565b6040516103279190611a4b565b60405180910390f35b6000634906490660e01b7bffffffffffffffffffffffffffffffffffffffffffffffffffffffff1916827bffffffffffffffffffffffffffffffffffffffffffffffffffffffff1916148061038a57506103898261093e565b5b9050919050565b6060600080546103a090611ef9565b80601f01602080910402602001604051908101604052809291908181526020018280546103cc90611ef9565b80156104195780601f106103ee57610100808354040283529160200191610419565b820191906000526020600020905b8154815290600101906020018083116103fc57829003601f168201915b5050505050905090565b600061042e82610a20565b5061043882610aa8565b9050919050565b610451828261044c610ae5565b610aed565b5050565b600073ffffffffffffffffffffffffffffffffffffffff168273ffffffffffffffffffffffffffffffffffffffff16036104c75760006040517f64a0ae920000000000000000000000000000000000000000000000000000000081526004016104be9190611a4b565b60405180910390fd5b60006104db83836104d6610ae5565b610aff565b90508373ffffffffffffffffffffffffffffffffffffffff168173ffffffffffffffffffffffffffffffffffffffff1614610551578382826040517f64283d7b00000000000000000000000000000000000000000000000000000000815260040161054893929190611f2a565b60405180910390fd5b50505050565b61057283838360405180602001604052806000815250610754565b505050565b60006007600081548092919061058c90611f90565b919050555061059d33600754610d19565b6105a960075483610e12565b6105d6600860009054906101000a900473ffffffffffffffffffffffffffffffffffffffff16600161073e565b6007549050919050565b60006105eb82610a20565b9050919050565b60008073ffffffffffffffffffffffffffffffffffffffff168273ffffffffffffffffffffffffffffffffffffffff16036106655760006040517f89c62b6400000000000000000000000000000000000000000000000000000000815260040161065c9190611a4b565b60405180910390fd5b600360008373ffffffffffffffffffffffffffffffffffffffff1673ffffffffffffffffffffffffffffffffffffffff168152602001908152602001600020549050919050565b6060600180546106bb90611ef9565b80601f01602080910402602001604051908101604052809291908181526020018280546106e790611ef9565b80156107345780601f1061070957610100808354040283529160200191610734565b820191906000526020600020905b81548152906001019060200180831161071757829003601f168201915b5050505050905090565b610750610749610ae5565b8383610e6e565b5050565b61075f848484610455565b61076b84848484610fdd565b50505050565b606061077c82610a20565b50600060066000848152602001908152602001600020805461079d90611ef9565b80601f01602080910402602001604051908101604052809291908181526020018280546107c990611ef9565b80156108165780601f106107eb57610100808354040283529160200191610816565b820191906000526020600020905b8154815290600101906020018083116107f957829003601f168201915b505050505090506000610827611194565b9050600081510361083c57819250505061087f565b600082511115610871578082604051602001610859929190612014565b6040516020818303038152906040529250505061087f565b61087a846111ab565b925050505b919050565b6000600560008473ffffffffffffffffffffffffffffffffffffffff1673ffffffffffffffffffffffffffffffffffffffff16815260200190815260200160002060008373ffffffffffffffffffffffffffffffffffffffff1673ffffffffffffffffffffffffffffffffffffffff16815260200190815260200160002060009054906101000a900460ff16905092915050565b600860009054906101000a900473ffffffffffffffffffffffffffffffffffffffff1681565b60007f80ac58cd000000000000000000000000000000000000000000000000000000007bffffffffffffffffffffffffffffffffffffffffffffffffffffffff1916827bffffffffffffffffffffffffffffffffffffffffffffffffffffffff19161480610a0957507f5b5e139f000000000000000000000000000000000000000000000000000000007bffffffffffffffffffffffffffffffffffffffffffffffffffffffff1916827bffffffffffffffffffffffffffffffffffffffffffffffffffffffff1916145b80610a195750610a1882611214565b5b9050919050565b600080610a2c8361127e565b9050600073ffffffffffffffffffffffffffffffffffffffff168173ffffffffffffffffffffffffffffffffffffffff1603610a9f57826040517f7e273289000000000000000000000000000000000000000000000000000000008152600401610a969190611cb2565b60405180910390fd5b80915050919050565b60006004600083815260200190815260200160002060009054906101000a900473ffffffffffffffffffffffffffffffffffffffff169050919050565b600033905090565b610afa83838360016112bb565b505050565b600080610b0b8461127e565b9050600073ffffffffffffffffffffffffffffffffffffffff168373ffffffffffffffffffffffffffffffffffffffff1614610b4d57610b4c818486611480565b5b600073ffffffffffffffffffffffffffffffffffffffff168173ffffffffffffffffffffffffffffffffffffffff1614610bde57610b8f6000856000806112bb565b6001600360008373ffffffffffffffffffffffffffffffffffffffff1673ffffffffffffffffffffffffffffffffffffffff168152602001908152602001600020600082825403925050819055505b600073ffffffffffffffffffffffffffffffffffffffff168573ffffffffffffffffffffffffffffffffffffffff1614610c61576001600360008773ffffffffffffffffffffffffffffffffffffffff1673ffffffffffffffffffffffffffffffffffffffff168152602001908152602001600020600082825401925050819055505b846002600086815260200190815260200160002060006101000a81548173ffffffffffffffffffffffffffffffffffffffff021916908373ffffffffffffffffffffffffffffffffffffffff160217905550838573ffffffffffffffffffffffffffffffffffffffff168273ffffffffffffffffffffffffffffffffffffffff167fddf252ad1be2c89b69c2b068fc378daa952ba7f163c4a11628f55a4df523b3ef60405160405180910390a4809150509392505050565b600073ffffffffffffffffffffffffffffffffffffffff168273ffffffffffffffffffffffffffffffffffffffff1603610d8b5760006040517f64a0ae92000000000000000000000000000000000000000000000000000000008152600401610d829190611a4b565b60405180910390fd5b6000610d9983836000610aff565b9050600073ffffffffffffffffffffffffffffffffffffffff168173ffffffffffffffffffffffffffffffffffffffff1614610e0d5760006040517f73c6ac6e000000000000000000000000000000000000000000000000000000008152600401610e049190611a4b565b60405180910390fd5b505050565b80600660008481526020019081526020016000209081610e3291906121e4565b507ff8e1a15aba9398e019f0b49df1a4fde98ee17ae345cb5f6b5e2c27f5033e8ce782604051610e629190611cb2565b60405180910390a15050565b600073ffffffffffffffffffffffffffffffffffffffff168273ffffffffffffffffffffffffffffffffffffffff1603610edf57816040517f5b08ba18000000000000000000000000000000000000000000000000000000008152600401610ed69190611a4b565b60405180910390fd5b80600560008573ffffffffffffffffffffffffffffffffffffffff1673ffffffffffffffffffffffffffffffffffffffff16815260200190815260200160002060008473ffffffffffffffffffffffffffffffffffffffff1673ffffffffffffffffffffffffffffffffffffffff16815260200190815260200160002060006101000a81548160ff0219169083151502179055508173ffffffffffffffffffffffffffffffffffffffff168373ffffffffffffffffffffffffffffffffffffffff167f17307eab39ab6107e8899845ad3d59bd9653f200f220920489ca2b5937696c3183604051610fd091906118da565b60405180910390a3505050565b60008373ffffffffffffffffffffffffffffffffffffffff163b111561118e578273ffffffffffffffffffffffffffffffffffffffff1663150b7a02611021610ae5565b8685856040518563ffffffff1660e01b8152600401611043949392919061230b565b6020604051808303816000875af192505050801561107f57506040513d601f19601f8201168201806040525081019061107c919061236c565b60015b611103573d80600081146110af576040519150601f19603f3d011682016040523d82523d6000602084013e6110b4565b606091505b5060008151036110fb57836040517f64a0ae920000000000000000000000000000000000000000000000000000000081526004016110f29190611a4b565b60405180910390fd5b805181602001fd5b63150b7a0260e01b7bffffffffffffffffffffffffffffffffffffffffffffffffffffffff1916817bffffffffffffffffffffffffffffffffffffffffffffffffffffffff19161461118c57836040517f64a0ae920000000000000000000000000000000000000000000000000000000081526004016111839190611a4b565b60405180910390fd5b505b50505050565b606060405180602001604052806000815250905090565b60606111b682610a20565b5060006111c1611194565b905060008151116111e1576040518060200160405280600081525061120c565b806111eb84611544565b6040516020016111fc929190612014565b6040516020818303038152906040525b915050919050565b60007f01ffc9a7000000000000000000000000000000000000000000000000000000007bffffffffffffffffffffffffffffffffffffffffffffffffffffffff1916827bffffffffffffffffffffffffffffffffffffffffffffffffffffffff1916149050919050565b60006002600083815260200190815260200160002060009054906101000a900473ffffffffffffffffffffffffffffffffffffffff169050919050565b80806112f45750600073ffffffffffffffffffffffffffffffffffffffff168273ffffffffffffffffffffffffffffffffffffffff1614155b1561142857600061130484610a20565b9050600073ffffffffffffffffffffffffffffffffffffffff168373ffffffffffffffffffffffffffffffffffffffff161415801561136f57508273ffffffffffffffffffffffffffffffffffffffff168173ffffffffffffffffffffffffffffffffffffffff1614155b801561138257506113808184610884565b155b156113c457826040517fa9fbf51f0000000000000000000000000000000000000000000000000000000081526004016113bb9190611a4b565b60405180910390fd5b811561142657838573ffffffffffffffffffffffffffffffffffffffff168273ffffffffffffffffffffffffffffffffffffffff167f8c5be1e5ebec7d5bd14f71427d1e84f3dd0314c0f7b2291e5b200ac8c7c3b92560405160405180910390a45b505b836004600085815260200190815260200160002060006101000a81548173ffffffffffffffffffffffffffffffffffffffff021916908373ffffffffffffffffffffffffffffffffffffffff16021790555050505050565b61148b838383611612565b61153f57600073ffffffffffffffffffffffffffffffffffffffff168373ffffffffffffffffffffffffffffffffffffffff160361150057806040517f7e2732890000000000000000000000000000000000000000000000000000000081526004016114f79190611cb2565b60405180910390fd5b81816040517f177e802f000000000000000000000000000000000000000000000000000000008152600401611536929190612399565b60405180910390fd5b505050565b606060006001611553846116d3565b01905060008167ffffffffffffffff81111561157257611571611b2f565b5b6040519080825280601f01601f1916602001820160405280156115a45781602001600182028036833780820191505090505b509050600082602001820190505b600115611607578080600190039150507f3031323334353637383961626364656600000000000000000000000000000000600a86061a8153600a85816115fb576115fa6123c2565b5b049450600085036115b2575b819350505050919050565b60008073ffffffffffffffffffffffffffffffffffffffff168373ffffffffffffffffffffffffffffffffffffffff16141580156116ca57508273ffffffffffffffffffffffffffffffffffffffff168473ffffffffffffffffffffffffffffffffffffffff16148061168b575061168a8484610884565b5b806116c957508273ffffffffffffffffffffffffffffffffffffffff166116b183610aa8565b73ffffffffffffffffffffffffffffffffffffffff16145b5b90509392505050565b600080600090507a184f03e93ff9f4daa797ed6e38ed64bf6a1f0100000000000000008310611731577a184f03e93ff9f4daa797ed6e38ed64bf6a1f0100000000000000008381611727576117266123c2565b5b0492506040810190505b6d04ee2d6d415b85acef8100000000831061176e576d04ee2d6d415b85acef81000000008381611764576117636123c2565b5b0492506020810190505b662386f26fc10000831061179d57662386f26fc100008381611793576117926123c2565b5b0492506010810190505b6305f5e10083106117c6576305f5e10083816117bc576117bb6123c2565b5b0492506008810190505b61271083106117eb5761271083816117e1576117e06123c2565b5b0492506004810190505b6064831061180e5760648381611804576118036123c2565b5b0492506002810190505b600a831061181d576001810190505b80915050919050565b6000604051905090565b600080fd5b600080fd5b60007fffffffff0000000000000000000000000000000000000000000000000000000082169050919050565b61186f8161183a565b811461187a57600080fd5b50565b60008135905061188c81611866565b92915050565b6000602082840312156118a8576118a7611830565b5b60006118b68482850161187d565b91505092915050565b60008115159050919050565b6118d4816118bf565b82525050565b60006020820190506118ef60008301846118cb565b92915050565b600081519050919050565b600082825260208201905092915050565b60005b8381101561192f578082015181840152602081019050611914565b60008484015250505050565b6000601f19601f8301169050919050565b6000611957826118f5565b6119618185611900565b9350611971818560208601611911565b61197a8161193b565b840191505092915050565b6000602082019050818103600083015261199f818461194c565b905092915050565b6000819050919050565b6119ba816119a7565b81146119c557600080fd5b50565b6000813590506119d7816119b1565b92915050565b6000602082840312156119f3576119f2611830565b5b6000611a01848285016119c8565b91505092915050565b600073ffffffffffffffffffffffffffffffffffffffff82169050919050565b6000611a3582611a0a565b9050919050565b611a4581611a2a565b82525050565b6000602082019050611a606000830184611a3c565b92915050565b611a6f81611a2a565b8114611a7a57600080fd5b50565b600081359050611a8c81611a66565b92915050565b60008060408385031215611aa957611aa8611830565b5b6000611ab785828601611a7d565b9250506020611ac8858286016119c8565b9150509250929050565b600080600060608486031215611aeb57611aea611830565b5b6000611af986828701611a7d565b9350506020611b0a86828701611a7d565b9250506040611b1b868287016119c8565b9150509250925092565b600080fd5b600080fd5b7f4e487b7100000000000000000000000000000000000000000000000000000000600052604160045260246000fd5b611b678261193b565b810181811067ffffffffffffffff82111715611b8657611b85611b2f565b5b80604052505050565b6000611b99611826565b9050611ba58282611b5e565b919050565b600067ffffffffffffffff821115611bc557611bc4611b2f565b5b611bce8261193b565b9050602081019050919050565b82818337600083830152505050565b6000611bfd611bf884611baa565b611b8f565b905082815260208101848484011115611c1957611c18611b2a565b5b611c24848285611bdb565b509392505050565b600082601f830112611c4157611c40611b25565b5b8135611c51848260208601611bea565b91505092915050565b600060208284031215611c7057611c6f611830565b5b600082013567ffffffffffffffff811115611c8e57611c8d611835565b5b611c9a84828501611c2c565b91505092915050565b611cac816119a7565b82525050565b6000602082019050611cc76000830184611ca3565b92915050565b600060208284031215611ce357611ce2611830565b5b6000611cf184828501611a7d565b91505092915050565b611d03816118bf565b8114611d0e57600080fd5b50565b600081359050611d2081611cfa565b92915050565b60008060408385031215611d3d57611d3c611830565b5b6000611d4b85828601611a7d565b9250506020611d5c85828601611d11565b9150509250929050565b600067ffffffffffffffff821115611d8157611d80611b2f565b5b611d8a8261193b565b9050602081019050919050565b6000611daa611da584611d66565b611b8f565b905082815260208101848484011115611dc657611dc5611b2a565b5b611dd1848285611bdb565b509392505050565b600082601f830112611dee57611ded611b25565b5b8135611dfe848260208601611d97565b91505092915050565b60008060008060808587031215611e2157611e20611830565b5b6000611e2f87828801611a7d565b9450506020611e4087828801611a7d565b9350506040611e51878288016119c8565b925050606085013567ffffffffffffffff811115611e7257611e71611835565b5b611e7e87828801611dd9565b91505092959194509250565b60008060408385031215611ea157611ea0611830565b5b6000611eaf85828601611a7d565b9250506020611ec085828601611a7d565b9150509250929050565b7f4e487b7100000000000000000000000000000000000000000000000000000000600052602260045260246000fd5b60006002820490506001821680611f1157607f821691505b602082108103611f2457611f23611eca565b5b50919050565b6000606082019050611f3f6000830186611a3c565b611f4c6020830185611ca3565b611f596040830184611a3c565b949350505050565b7f4e487b7100000000000000000000000000000000000000000000000000000000600052601160045260246000fd5b6000611f9b826119a7565b91507fffffffffffffffffffffffffffffffffffffffffffffffffffffffffffffffff8203611fcd57611fcc611f61565b5b600182019050919050565b600081905092915050565b6000611fee826118f5565b611ff88185611fd8565b9350612008818560208601611911565b80840191505092915050565b60006120208285611fe3565b915061202c8284611fe3565b91508190509392505050565b60008190508160005260206000209050919050565b60006020601f8301049050919050565b600082821b905092915050565b60006008830261209a7fffffffffffffffffffffffffffffffffffffffffffffffffffffffffffffffff8261205d565b6120a4868361205d565b95508019841693508086168417925050509392505050565b6000819050919050565b60006120e16120dc6120d7846119a7565b6120bc565b6119a7565b9050919050565b6000819050919050565b6120fb836120c6565b61210f612107826120e8565b84845461206a565b825550505050565b600090565b612124612117565b61212f8184846120f2565b505050565b5b818110156121535761214860008261211c565b600181019050612135565b5050565b601f8211156121985761216981612038565b6121728461204d565b81016020851015612181578190505b61219561218d8561204d565b830182612134565b50505b505050565b600082821c905092915050565b60006121bb6000198460080261219d565b1980831691505092915050565b60006121d483836121aa565b9150826002028217905092915050565b6121ed826118f5565b67ffffffffffffffff81111561220657612205611b2f565b5b6122108254611ef9565b61221b828285612157565b600060209050601f83116001811461224e576000841561223c578287015190505b61224685826121c8565b8655506122ae565b601f19841661225c86612038565b60005b828110156122845784890151825560018201915060208501945060208101905061225f565b868310156122a1578489015161229d601f8916826121aa565b8355505b6001600288020188555050505b505050505050565b600081519050919050565b600082825260208201905092915050565b60006122dd826122b6565b6122e781856122c1565b93506122f7818560208601611911565b6123008161193b565b840191505092915050565b60006080820190506123206000830187611a3c565b61232d6020830186611a3c565b61233a6040830185611ca3565b818103606083015261234c81846122d2565b905095945050505050565b60008151905061236681611866565b92915050565b60006020828403121561238257612381611830565b5b600061239084828501612357565b91505092915050565b60006040820190506123ae6000830185611a3c565b6123bb6020830184611ca3565b9392505050565b7f4e487b7100000000000000000000000000000000000000000000000000000000600052601260045260246000fdfea26469706673582212209e0137528603497374f18ca6a375cdaa902c6c4c25694af8e7d1b32abae5efea64736f6c63430008180033",
  "linkReferences": {},
  "deployedLinkReferences": {}
}